{
  "transactions": [
    {
      "hash": "0x761cd59f3d63f22881c8d2f5cf8c01f32f06c23e893750caa22e14df639e246c",
      "transactionType": "CALL",
      "contractName": null,
      "contractAddress": "0x48ac463d7975828989331f4de43341627b9c5f1d",
      "function": "requestAttestation(bytes)",
      "arguments": [
        "0x576562324a736f6e0000000000000000000000000000000000000000000000005075626c6963576562320000000000000000000000000000000000000000000063119b4770e6406e1d0553301578856becaf5c4565fdb5758a37faf4782cdafb000000000000000000000000000000000000000000000000000000000000002000000000000000000000000000000000000000000000000000000000000000e0000000000000000000000000000000000000000000000000000000000000016000000000000000000000000000000000000000000000000000000000000001a000000000000000000000000000000000000000000000000000000000000001e00000000000000000000000000000000000000000000000000000000000000220000000000000000000000000000000000000000000000000000000000000026000000000000000000000000000000000000000000000000000000000000002e0000000000000000000000000000000000000000000000000000000000000004668747470733a2f2f63646e2e6a7364656c6976722e6e65742f67682f72756f7875616e6e6e2f6c6f6e646f6e2d707562732d64656d6f406d61696e2f71756f74652e6a736f6e00000000000000000000000000000000000000000000000000000000000000000000000000000000000000000000000000000000000000000003474554000000000000000000000000000000000000000000000000000000000000000000000000000000000000000000000000000000000000000000000000027b7d00000000000000000000000000000000000000000000000000000000000000000000000000000000000000000000000000000000000000000000000000027b7d00000000000000000000000000000000000000000000000000000000000000000000000000000000000000000000000000000000000000000000000000027b7d00000000000000000000000000000000000000000000000000000000000000000000000000000000000000000000000000000000000000000000000000577b70756249643a2e70756249642c646174654b65793a2e646174654b65792c7072656d69756d5573645765693a2e7072656d69756d5573645765692c7061796f75745573645765693a2e7061796f75745573645765697d00000000000000000000000000000000000000000000000000000000000000000000000000000001237b22636f6d706f6e656e7473223a5b7b22696e7465726e616c54797065223a22737472696e67222c226e616d65223a227075624964222c2274797065223a22737472696e67227d2c7b22696e7465726e616c54797065223a22737472696e67222c226e616d65223a22646174654b6579222c2274797065223a22737472696e67227d2c7b22696e7465726e616c54797065223a22737472696e67222c226e616d65223a227072656d69756d557364576569222c2274797065223a22737472696e67227d2c7b22696e7465726e616c54797065223a22737472696e67222c226e616d65223a227061796f7574557364576569222c2274797065223a22737472696e67227d5d2c226e616d65223a2271756f7465222c2274797065223a227475706c65227d0000000000000000000000000000000000000000000000000000000000"
      ],
      "transaction": {
        "from": "0xe96c20b1ad77ef2f8ebdaebb2e8e287629e5f671",
        "to": "0x48ac463d7975828989331f4de43341627b9c5f1d",
        "gas": "0x2229a",
        "value": "0x3e8",
        "input": "0x6238f354000000000000000000000000000000000000000000000000000000000000002000000000000000000000000000000000000000000000000000000000000004c0576562324a736f6e0000000000000000000000000000000000000000000000005075626c6963576562320000000000000000000000000000000000000000000063119b4770e6406e1d0553301578856becaf5c4565fdb5758a37faf4782cdafb000000000000000000000000000000000000000000000000000000000000002000000000000000000000000000000000000000000000000000000000000000e0000000000000000000000000000000000000000000000000000000000000016000000000000000000000000000000000000000000000000000000000000001a000000000000000000000000000000000000000000000000000000000000001e00000000000000000000000000000000000000000000000000000000000000220000000000000000000000000000000000000000000000000000000000000026000000000000000000000000000000000000000000000000000000000000002e0000000000000000000000000000000000000000000000000000000000000004668747470733a2f2f63646e2e6a7364656c6976722e6e65742f67682f72756f7875616e6e6e2f6c6f6e646f6e2d707562732d64656d6f406d61696e2f71756f74652e6a736f6e00000000000000000000000000000000000000000000000000000000000000000000000000000000000000000000000000000000000000000003474554000000000000000000000000000000000000000000000000000000000000000000000000000000000000000000000000000000000000000000000000027b7d00000000000000000000000000000000000000000000000000000000000000000000000000000000000000000000000000000000000000000000000000027b7d00000000000000000000000000000000000000000000000000000000000000000000000000000000000000000000000000000000000000000000000000027b7d00000000000000000000000000000000000000000000000000000000000000000000000000000000000000000000000000000000000000000000000000577b70756249643a2e70756249642c646174654b65793a2e646174654b65792c7072656d69756d5573645765693a2e7072656d69756d5573645765692c7061796f75745573645765693a2e7061796f75745573645765697d00000000000000000000000000000000000000000000000000000000000000000000000000000001237b22636f6d706f6e656e7473223a5b7b22696e7465726e616c54797065223a22737472696e67222c226e616d65223a227075624964222c2274797065223a22737472696e67227d2c7b22696e7465726e616c54797065223a22737472696e67222c226e616d65223a22646174654b6579222c2274797065223a22737472696e67227d2c7b22696e7465726e616c54797065223a22737472696e67222c226e616d65223a227072656d69756d557364576569222c2274797065223a22737472696e67227d2c7b22696e7465726e616c54797065223a22737472696e67222c226e616d65223a227061796f7574557364576569222c2274797065223a22737472696e67227d5d2c226e616d65223a2271756f7465222c2274797065223a227475706c65227d0000000000000000000000000000000000000000000000000000000000",
        "nonce": "0x3d",
        "chainId": "0x72"
      },
      "additionalContracts": [],
      "isFixedGasLimit": false
    }
  ],
  "receipts": [
    {
      "status": "0x1",
      "cumulativeGasUsed": "0x18b2f9",
      "logs": [
        {
          "address": "0x48ac463d7975828989331f4de43341627b9c5f1d",
          "topics": [
            "0x251377668af6553101c9bb094ba89c0c536783e005e203625e6cd57345918cc9"
          ],
          "data": "0x000000000000000000000000000000000000000000000000000000000000004000000000000000000000000000000000000000000000000000000000000003e800000000000000000000000000000000000000000000000000000000000004c0576562324a736f6e0000000000000000000000000000000000000000000000005075626c6963576562320000000000000000000000000000000000000000000063119b4770e6406e1d0553301578856becaf5c4565fdb5758a37faf4782cdafb000000000000000000000000000000000000000000000000000000000000002000000000000000000000000000000000000000000000000000000000000000e0000000000000000000000000000000000000000000000000000000000000016000000000000000000000000000000000000000000000000000000000000001a000000000000000000000000000000000000000000000000000000000000001e00000000000000000000000000000000000000000000000000000000000000220000000000000000000000000000000000000000000000000000000000000026000000000000000000000000000000000000000000000000000000000000002e0000000000000000000000000000000000000000000000000000000000000004668747470733a2f2f63646e2e6a7364656c6976722e6e65742f67682f72756f7875616e6e6e2f6c6f6e646f6e2d707562732d64656d6f406d61696e2f71756f74652e6a736f6e00000000000000000000000000000000000000000000000000000000000000000000000000000000000000000000000000000000000000000003474554000000000000000000000000000000000000000000000000000000000000000000000000000000000000000000000000000000000000000000000000027b7d00000000000000000000000000000000000000000000000000000000000000000000000000000000000000000000000000000000000000000000000000027b7d00000000000000000000000000000000000000000000000000000000000000000000000000000000000000000000000000000000000000000000000000027b7d00000000000000000000000000000000000000000000000000000000000000000000000000000000000000000000000000000000000000000000000000577b70756249643a2e70756249642c646174654b65793a2e646174654b65792c7072656d69756d5573645765693a2e7072656d69756d5573645765692c7061796f75745573645765693a2e7061796f75745573645765697d00000000000000000000000000000000000000000000000000000000000000000000000000000001237b22636f6d706f6e656e7473223a5b7b22696e7465726e616c54797065223a22737472696e67222c226e616d65223a227075624964222c2274797065223a22737472696e67227d2c7b22696e7465726e616c54797065223a22737472696e67222c226e616d65223a22646174654b6579222c2274797065223a22737472696e67227d2c7b22696e7465726e616c54797065223a22737472696e67222c226e616d65223a227072656d69756d557364576569222c2274797065223a22737472696e67227d2c7b22696e7465726e616c54797065223a22737472696e67222c226e616d65223a227061796f7574557364576569222c2274797065223a22737472696e67227d5d2c226e616d65223a2271756f7465222c2274797065223a227475706c65227d0000000000000000000000000000000000000000000000000000000000",
          "blockHash": "0x999d68601f13f9ce9fbff28c571109aff11306f188c43aee021dc7e9139868e2",
          "blockNumber": "0x19bfa09",
          "transactionHash": "0x761cd59f3d63f22881c8d2f5cf8c01f32f06c23e893750caa22e14df639e246c",
          "transactionIndex": "0x4",
          "logIndex": "0x18",
          "removed": false
        }
      ],
      "logsBloom": "0x00000000000000000000000000000000000000000000000000000000000000000000000000000000000000000000000000000000000000000000000000000004000000000004000000000000000000000000000000000000000000000000000000000000000000000000000000000000000000000100000000000000000000000000000000000000008000000000000000000000000000000000000000000000000000020000000000000000000000000000000000000000000000000000000000002000000000000000000000000000000000000000000000000000000000000000000000000000000000000000000000000000000000000000000000000000",
      "type": "0x2",
      "transactionHash": "0x761cd59f3d63f22881c8d2f5cf8c01f32f06c23e893750caa22e14df639e246c",
      "transactionIndex": "0x4",
      "blockHash": "0x999d68601f13f9ce9fbff28c571109aff11306f188c43aee021dc7e9139868e2",
      "blockNumber": "0x19bfa09",
      "gasUsed": "0x18bbc",
      "effectiveGasPrice": "0x5d21dba01",
      "from": "0xe96c20b1ad77ef2f8ebdaebb2e8e287629e5f671",
      "to": "0x48ac463d7975828989331f4de43341627b9c5f1d",
      "contractAddress": null
    }
  ],
  "libraries": [],
  "pending": [],
  "returns": {},
  "timestamp": 1770512840846,
  "chain": 114,
  "commit": null
}