{
  "transactions": [
    {
      "hash": "0x1513e57c5331ae80766f8c5370f4feb9427e5946ff206a93327f179352d6a577",
      "transactionType": "CALL",
      "contractName": null,
      "contractAddress": "0x5970094029ecf1208997d3cc33669cbd678ab238",
      "function": "settleWithWeb2JsonProof((bytes32[],(bytes32,bytes32,uint64,uint64,(string,string,string,string,string,string,string),(bytes))))",
      "arguments": [
        "([0x2697acaeb64470a6db30f053665005bbec2ea479452b6a07c546f4388a83ac75, 0x10a99b30ba79ed69e7e69924d562e75f452efedafcc18cfcdceb4287e9a25b3e, 0x63437ee445a7a71db6c1063dd7f3997b36d4b325eae46c56ca8ab9c537601e0e, 0xca89e401efff2ec6fa84ec7d0c4ce323794b6ee66351435fc51d81c3da672b56], (0x576562324a736f6e000000000000000000000000000000000000000000000000, 0x5075626c69635765623200000000000000000000000000000000000000000000, 1245364, 0, (https://cdn.jsdelivr.net/gh/ruoxuannn/london-pubs-demo@main/quote.json, GET, {}, {}, {}, {pubId:.pubId,dateKey:.dateKey,premiumUsdWei:.premiumUsdWei,payoutUsdWei:.payoutUsdWei}, {\\\"components\\\":[{\\\"internalType\\\":\\\"string\\\",\\\"name\\\":\\\"pubId\\\",\\\"type\\\":\\\"string\\\"},{\\\"internalType\\\":\\\"string\\\",\\\"name\\\":\\\"dateKey\\\",\\\"type\\\":\\\"string\\\"},{\\\"internalType\\\":\\\"string\\\",\\\"name\\\":\\\"premiumUsdWei\\\",\\\"type\\\":\\\"string\\\"},{\\\"internalType\\\":\\\"string\\\",\\\"name\\\":\\\"payoutUsdWei\\\",\\\"type\\\":\\\"string\\\"}],\\\"name\\\":\\\"quote\\\",\\\"type\\\":\\\"tuple\\\"}), (0x0000000000000000000000000000000000000000000000000000000000000020000000000000000000000000000000000000000000000000000000000000008000000000000000000000000000000000000000000000000000000000000000c00000000000000000000000000000000000000000000000000000000000000100000000000000000000000000000000000000000000000000000000000000014000000000000000000000000000000000000000000000000000000000000000087075625f30313233000000000000000000000000000000000000000000000000000000000000000000000000000000000000000000000000000000000000000664656d6f2d3100000000000000000000000000000000000000000000000000000000000000000000000000000000000000000000000000000000000000000014313230303030303030303030303030303030303000000000000000000000000000000000000000000000000000000000000000000000000000000000000000143330303030303030303030303030303030303030000000000000000000000000)))"
      ],
      "transaction": {
        "from": "0xe96c20b1ad77ef2f8ebdaebb2e8e287629e5f671",
        "to": "0x5970094029ecf1208997d3cc33669cbd678ab238",
        "gas": "0x5aab1",
        "value": "0x0",
        "input": "0x8a51c6d70000000000000000000000000000000000000000000000000000000000000020000000000000000000000000000000000000000000000000000000000000004000000000000000000000000000000000000000000000000000000000000000e000000000000000000000000000000000000000000000000000000000000000042697acaeb64470a6db30f053665005bbec2ea479452b6a07c546f4388a83ac7510a99b30ba79ed69e7e69924d562e75f452efedafcc18cfcdceb4287e9a25b3e63437ee445a7a71db6c1063dd7f3997b36d4b325eae46c56ca8ab9c537601e0eca89e401efff2ec6fa84ec7d0c4ce323794b6ee66351435fc51d81c3da672b56576562324a736f6e0000000000000000000000000000000000000000000000005075626c6963576562320000000000000000000000000000000000000000000000000000000000000000000000000000000000000000000000000000001300b4000000000000000000000000000000000000000000000000000000000000000000000000000000000000000000000000000000000000000000000000000000c0000000000000000000000000000000000000000000000000000000000000050000000000000000000000000000000000000000000000000000000000000000e0000000000000000000000000000000000000000000000000000000000000016000000000000000000000000000000000000000000000000000000000000001a000000000000000000000000000000000000000000000000000000000000001e00000000000000000000000000000000000000000000000000000000000000220000000000000000000000000000000000000000000000000000000000000026000000000000000000000000000000000000000000000000000000000000002e0000000000000000000000000000000000000000000000000000000000000004668747470733a2f2f63646e2e6a7364656c6976722e6e65742f67682f72756f7875616e6e6e2f6c6f6e646f6e2d707562732d64656d6f406d61696e2f71756f74652e6a736f6e00000000000000000000000000000000000000000000000000000000000000000000000000000000000000000000000000000000000000000003474554000000000000000000000000000000000000000000000000000000000000000000000000000000000000000000000000000000000000000000000000027b7d00000000000000000000000000000000000000000000000000000000000000000000000000000000000000000000000000000000000000000000000000027b7d00000000000000000000000000000000000000000000000000000000000000000000000000000000000000000000000000000000000000000000000000027b7d00000000000000000000000000000000000000000000000000000000000000000000000000000000000000000000000000000000000000000000000000577b70756249643a2e70756249642c646174654b65793a2e646174654b65792c7072656d69756d5573645765693a2e7072656d69756d5573645765692c7061796f75745573645765693a2e7061796f75745573645765697d00000000000000000000000000000000000000000000000000000000000000000000000000000001237b22636f6d706f6e656e7473223a5b7b22696e7465726e616c54797065223a22737472696e67222c226e616d65223a227075624964222c2274797065223a22737472696e67227d2c7b22696e7465726e616c54797065223a22737472696e67222c226e616d65223a22646174654b6579222c2274797065223a22737472696e67227d2c7b22696e7465726e616c54797065223a22737472696e67222c226e616d65223a227072656d69756d557364576569222c2274797065223a22737472696e67227d2c7b22696e7465726e616c54797065223a22737472696e67222c226e616d65223a227061796f7574557364576569222c2274797065223a22737472696e67227d5d2c226e616d65223a2271756f7465222c2274797065223a227475706c65227d0000000000000000000000000000000000000000000000000000000000000000000000000000000000000000000000000000000000000000000000002000000000000000000000000000000000000000000000000000000000000001a00000000000000000000000000000000000000000000000000000000000000020000000000000000000000000000000000000000000000000000000000000008000000000000000000000000000000000000000000000000000000000000000c00000000000000000000000000000000000000000000000000000000000000100000000000000000000000000000000000000000000000000000000000000014000000000000000000000000000000000000000000000000000000000000000087075625f30313233000000000000000000000000000000000000000000000000000000000000000000000000000000000000000000000000000000000000000664656d6f2d3100000000000000000000000000000000000000000000000000000000000000000000000000000000000000000000000000000000000000000014313230303030303030303030303030303030303000000000000000000000000000000000000000000000000000000000000000000000000000000000000000143330303030303030303030303030303030303030000000000000000000000000",
        "nonce": "0x7a",
        "chainId": "0x72"
      },
      "additionalContracts": [],
      "isFixedGasLimit": false
    }
  ],
  "receipts": [
    {
      "status": "0x1",
      "cumulativeGasUsed": "0x112bd9",
      "logs": [
        {
          "address": "0x5970094029ecf1208997d3cc33669cbd678ab238",
          "topics": [
            "0x4731d2ddc31657ca6a4ccbf3bd5011b17ce983028ce4b643ed7757a04ccdae6d",
            "0x398d826052cc107050228a98308c34680aa0dce7d605593f6f73182fe2804534",
            "0x876694d64580ba7994ab2644dd2b32c425d7a86f64d8259d367e71774f3e994b"
          ],
          "data": "0x",
          "blockHash": "0x5754d14b61ba37e1498de33bddeebd77f4a1bc24646d76f31ba9bc33a9a54107",
          "blockNumber": "0x19c01d1",
          "transactionHash": "0x1513e57c5331ae80766f8c5370f4feb9427e5946ff206a93327f179352d6a577",
          "transactionIndex": "0x3",
          "logIndex": "0x8",
          "removed": false
        },
        {
          "address": "0x5970094029ecf1208997d3cc33669cbd678ab238",
          "topics": [
            "0xfcb6999ff4cbd411ea358cfb6e3b929dc17cd3fde53bdd52c5fb5520af3127f6",
            "0x398d826052cc107050228a98308c34680aa0dce7d605593f6f73182fe2804534",
            "0x876694d64580ba7994ab2644dd2b32c425d7a86f64d8259d367e71774f3e994b"
          ],
          "data": "0x000000000000000000000000000000000000000000000000a688906bd8b00000",
          "blockHash": "0x5754d14b61ba37e1498de33bddeebd77f4a1bc24646d76f31ba9bc33a9a54107",
          "blockNumber": "0x19c01d1",
          "transactionHash": "0x1513e57c5331ae80766f8c5370f4feb9427e5946ff206a93327f179352d6a577",
          "transactionIndex": "0x3",
          "logIndex": "0x9",
          "removed": false
        },
        {
          "address": "0x5970094029ecf1208997d3cc33669cbd678ab238",
          "topics": [
            "0x3b11d1586f4a2b570cf8d770514ccb60a72bcaa0b3c3b12739ddf0d6f3e130bd"
          ],
          "data": "0x000000000000000000000000000000000000000000000000002238869bdeb800000000000000000000000000000000000000000000000000000000006987f37b",
          "blockHash": "0x5754d14b61ba37e1498de33bddeebd77f4a1bc24646d76f31ba9bc33a9a54107",
          "blockNumber": "0x19c01d1",
          "transactionHash": "0x1513e57c5331ae80766f8c5370f4feb9427e5946ff206a93327f179352d6a577",
          "transactionIndex": "0x3",
          "logIndex": "0xa",
          "removed": false
        },
        {
          "address": "0x5970094029ecf1208997d3cc33669cbd678ab238",
          "topics": [
            "0x2ec2a30b4c5d7cc91a641dc9ec17cdd9eb5fbef96041e939a4808e5401642133",
            "0x398d826052cc107050228a98308c34680aa0dce7d605593f6f73182fe2804534",
            "0x876694d64580ba7994ab2644dd2b32c425d7a86f64d8259d367e71774f3e994b"
          ],
          "data": "0x000000000000000000000000000000000000000000000001a055690d9db800000000000000000000000000000000000000000000000000a8d6a920bc4fc9639a",
          "blockHash": "0x5754d14b61ba37e1498de33bddeebd77f4a1bc24646d76f31ba9bc33a9a54107",
          "blockNumber": "0x19c01d1",
          "transactionHash": "0x1513e57c5331ae80766f8c5370f4feb9427e5946ff206a93327f179352d6a577",
          "transactionIndex": "0x3",
          "logIndex": "0xb",
          "removed": false
        },
        {
          "address": "0x5970094029ecf1208997d3cc33669cbd678ab238",
          "topics": [
            "0x2183319f044ada5a43ebd8cfa998d48e7c8fb8c389105ba9b9a4d2bfe8436288",
            "0x398d826052cc107050228a98308c34680aa0dce7d605593f6f73182fe2804534",
            "0x876694d64580ba7994ab2644dd2b32c425d7a86f64d8259d367e71774f3e994b"
          ],
          "data": "0x00000000000000000000000000000000000000000000000000000000000000000000000000000000000000005313b16f74963a791b2e23b247f2c3bc0d86acf3",
          "blockHash": "0x5754d14b61ba37e1498de33bddeebd77f4a1bc24646d76f31ba9bc33a9a54107",
          "blockNumber": "0x19c01d1",
          "transactionHash": "0x1513e57c5331ae80766f8c5370f4feb9427e5946ff206a93327f179352d6a577",
          "transactionIndex": "0x3",
          "logIndex": "0xc",
          "removed": false
        },
        {
          "address": "0x5313b16f74963a791b2e23b247f2c3bc0d86acf3",
          "topics": [
            "0xddf252ad1be2c89b69c2b068fc378daa952ba7f163c4a11628f55a4df523b3ef",
            "0x000000000000000000000000f2089521c7017bee848fc4dafd6cce2be8176ab1",
            "0x000000000000000000000000e96c20b1ad77ef2f8ebdaebb2e8e287629e5f671"
          ],
          "data": "0x000000000000000000000000000000000000000000000001a055690d9db80000",
          "blockHash": "0x5754d14b61ba37e1498de33bddeebd77f4a1bc24646d76f31ba9bc33a9a54107",
          "blockNumber": "0x19c01d1",
          "transactionHash": "0x1513e57c5331ae80766f8c5370f4feb9427e5946ff206a93327f179352d6a577",
          "transactionIndex": "0x3",
          "logIndex": "0xd",
          "removed": false
        },
        {
          "address": "0x5970094029ecf1208997d3cc33669cbd678ab238",
          "topics": [
            "0x851c9b0a723d2190c1789bbbcd9f7eaf17a7c98dae645a1c45d44c037be56c69",
            "0x398d826052cc107050228a98308c34680aa0dce7d605593f6f73182fe2804534",
            "0x876694d64580ba7994ab2644dd2b32c425d7a86f64d8259d367e71774f3e994b"
          ],
          "data": "0x0000000000000000000000005313b16f74963a791b2e23b247f2c3bc0d86acf3000000000000000000000000000000000000000000000001a055690d9db80000",
          "blockHash": "0x5754d14b61ba37e1498de33bddeebd77f4a1bc24646d76f31ba9bc33a9a54107",
          "blockNumber": "0x19c01d1",
          "transactionHash": "0x1513e57c5331ae80766f8c5370f4feb9427e5946ff206a93327f179352d6a577",
          "transactionIndex": "0x3",
          "logIndex": "0xe",
          "removed": false
        }
      ],
      "logsBloom": "0x00000000001000000000000080000001100000000000000000000000000000000000002000000000040000000000001000000000000000000001000000000000000000000000000000000008000000000000000040002000020000000000000000400000000000000000400000000000000000002008400000000010000000000000000000000010000000020000001000000000020000000000000000000000000000000000000900000000000000800000000000000808800000000000000000000002000800088000000000000000000000000100000000000800000000000000000000000100000000080000200000000010000000000000000040000000",
      "type": "0x0",
      "transactionHash": "0x1513e57c5331ae80766f8c5370f4feb9427e5946ff206a93327f179352d6a577",
      "transactionIndex": "0x3",
      "blockHash": "0x5754d14b61ba37e1498de33bddeebd77f4a1bc24646d76f31ba9bc33a9a54107",
      "blockNumber": "0x19c01d1",
      "gasUsed": "0x41a47",
      "effectiveGasPrice": "0x5d21dba01",
      "from": "0xe96c20b1ad77ef2f8ebdaebb2e8e287629e5f671",
      "to": "0x5970094029ecf1208997d3cc33669cbd678ab238",
      "contractAddress": null
    }
  ],
  "libraries": [],
  "pending": [],
  "returns": {},
  "timestamp": 1770517376636,
  "chain": 114,
  "commit": null
}