{
  "transactions": [
    {
      "hash": "0x8fb7d45b5dfb53894b7e25cf1b20ca5380e988684263ce30ee6a3b881bb6b814",
      "transactionType": "CREATE",
      "contractName": "MockUSD",
      "contractAddress": "0xf132a1d706327cfda590892217ac217a67b07a0f",
      "function": null,
      "arguments": null,
      "transaction": {
        "from": "0xe96c20b1ad77ef2f8ebdaebb2e8e287629e5f671",
        "gas": "0x12311c",
        "value": "0x0",
        "input": "0x608060405234801561000f575f5ffd5b506040518060400160405280600881526020017f4d6f636b205553440000000000000000000000000000000000000000000000008152506040518060400160405280600481526020017f6d55534400000000000000000000000000000000000000000000000000000000815250816003908161008b91906102f1565b50806004908161009b91906102f1565b5050506103c0565b5f81519050919050565b7f4e487b71000000000000000000000000000000000000000000000000000000005f52604160045260245ffd5b7f4e487b71000000000000000000000000000000000000000000000000000000005f52602260045260245ffd5b5f600282049050600182168061011e57607f821691505b602082108103610131576101306100da565b5b50919050565b5f819050815f5260205f209050919050565b5f6020601f8301049050919050565b5f82821b905092915050565b5f600883026101937fffffffffffffffffffffffffffffffffffffffffffffffffffffffffffffffff82610158565b61019d8683610158565b95508019841693508086168417925050509392505050565b5f819050919050565b5f819050919050565b5f6101e16101dc6101d7846101b5565b6101be565b6101b5565b9050919050565b5f819050919050565b6101fa836101c7565b61020e610206826101e8565b848454610164565b825550505050565b5f5f905090565b610225610216565b6102308184846101f1565b505050565b5f5b828110156102565761024b5f82840161021d565b600181019050610237565b505050565b601f8211156102a957828211156102a85761027581610137565b61027e83610149565b61028785610149565b6020861015610294575f90505b8083016102a382840382610235565b505050505b5b505050565b5f82821c905092915050565b5f6102c95f19846008026102ae565b1980831691505092915050565b5f6102e183836102ba565b9150826002028217905092915050565b6102fa826100a3565b67ffffffffffffffff811115610313576103126100ad565b5b61031d8254610107565b61032882828561025b565b5f60209050601f831160018114610359575f8415610347578287015190505b61035185826102d6565b8655506103b8565b601f19841661036786610137565b5f5b8281101561038e57848901518255600182019150602085019450602081019050610369565b868310156103ab57848901516103a7601f8916826102ba565b8355505b6001600288020188555050505b505050505050565b610e96806103cd5f395ff3fe608060405234801561000f575f5ffd5b506004361061009c575f3560e01c806340c10f191161006457806340c10f191461015a57806370a082311461017657806395d89b41146101a6578063a9059cbb146101c4578063dd62ed3e146101f45761009c565b806306fdde03146100a0578063095ea7b3146100be57806318160ddd146100ee57806323b872dd1461010c578063313ce5671461013c575b5f5ffd5b6100a8610224565b6040516100b59190610b0f565b60405180910390f35b6100d860048036038101906100d39190610bc0565b6102b4565b6040516100e59190610c18565b60405180910390f35b6100f66102d6565b6040516101039190610c40565b60405180910390f35b61012660048036038101906101219190610c59565b6102df565b6040516101339190610c18565b60405180910390f35b61014461030d565b6040516101519190610cc4565b60405180910390f35b610174600480360381019061016f9190610bc0565b610315565b005b610190600480360381019061018b9190610cdd565b610323565b60405161019d9190610c40565b60405180910390f35b6101ae610368565b6040516101bb9190610b0f565b60405180910390f35b6101de60048036038101906101d99190610bc0565b6103f8565b6040516101eb9190610c18565b60405180910390f35b61020e60048036038101906102099190610d08565b61041a565b60405161021b9190610c40565b60405180910390f35b60606003805461023390610d73565b80601f016020809104026020016040519081016040528092919081815260200182805461025f90610d73565b80156102aa5780601f10610281576101008083540402835291602001916102aa565b820191905f5260205f20905b81548152906001019060200180831161028d57829003601f168201915b5050505050905090565b5f5f6102be61049c565b90506102cb8185856104a3565b600191505092915050565b5f600254905090565b5f5f6102e961049c565b90506102f68582856104b5565b610301858585610548565b60019150509392505050565b5f6012905090565b61031f8282610638565b5050565b5f5f5f8373ffffffffffffffffffffffffffffffffffffffff1673ffffffffffffffffffffffffffffffffffffffff1681526020019081526020015f20549050919050565b60606004805461037790610d73565b80601f01602080910402602001604051908101604052809291908181526020018280546103a390610d73565b80156103ee5780601f106103c5576101008083540402835291602001916103ee565b820191905f5260205f20905b8154815290600101906020018083116103d157829003601f168201915b5050505050905090565b5f5f61040261049c565b905061040f818585610548565b600191505092915050565b5f60015f8473ffffffffffffffffffffffffffffffffffffffff1673ffffffffffffffffffffffffffffffffffffffff1681526020019081526020015f205f8373ffffffffffffffffffffffffffffffffffffffff1673ffffffffffffffffffffffffffffffffffffffff1681526020019081526020015f2054905092915050565b5f33905090565b6104b083838360016106b7565b505050565b5f6104c0848461041a565b90507fffffffffffffffffffffffffffffffffffffffffffffffffffffffffffffffff8110156105425781811015610533578281836040517ffb8f41b200000000000000000000000000000000000000000000000000000000815260040161052a93929190610db2565b60405180910390fd5b61054184848484035f6106b7565b5b50505050565b5f73ffffffffffffffffffffffffffffffffffffffff168373ffffffffffffffffffffffffffffffffffffffff16036105b8575f6040517f96c6fd1e0000000000000000000000000000000000000000000000000000000081526004016105af9190610de7565b60405180910390fd5b5f73ffffffffffffffffffffffffffffffffffffffff168273ffffffffffffffffffffffffffffffffffffffff1603610628575f6040517fec442f0500000000000000000000000000000000000000000000000000000000815260040161061f9190610de7565b60405180910390fd5b610633838383610886565b505050565b5f73ffffffffffffffffffffffffffffffffffffffff168273ffffffffffffffffffffffffffffffffffffffff16036106a8575f6040517fec442f0500000000000000000000000000000000000000000000000000000000815260040161069f9190610de7565b60405180910390fd5b6106b35f8383610886565b5050565b5f73ffffffffffffffffffffffffffffffffffffffff168473ffffffffffffffffffffffffffffffffffffffff1603610727575f6040517fe602df0500000000000000000000000000000000000000000000000000000000815260040161071e9190610de7565b60405180910390fd5b5f73ffffffffffffffffffffffffffffffffffffffff168373ffffffffffffffffffffffffffffffffffffffff1603610797575f6040517f94280d6200000000000000000000000000000000000000000000000000000000815260040161078e9190610de7565b60405180910390fd5b8160015f8673ffffffffffffffffffffffffffffffffffffffff1673ffffffffffffffffffffffffffffffffffffffff1681526020019081526020015f205f8573ffffffffffffffffffffffffffffffffffffffff1673ffffffffffffffffffffffffffffffffffffffff1681526020019081526020015f20819055508015610880578273ffffffffffffffffffffffffffffffffffffffff168473ffffffffffffffffffffffffffffffffffffffff167f8c5be1e5ebec7d5bd14f71427d1e84f3dd0314c0f7b2291e5b200ac8c7c3b925846040516108779190610c40565b60405180910390a35b50505050565b5f73ffffffffffffffffffffffffffffffffffffffff168373ffffffffffffffffffffffffffffffffffffffff16036108d6578060025f8282546108ca9190610e2d565b925050819055506109a4565b5f5f5f8573ffffffffffffffffffffffffffffffffffffffff1673ffffffffffffffffffffffffffffffffffffffff1681526020019081526020015f205490508181101561095f578381836040517fe450d38c00000000000000000000000000000000000000000000000000000000815260040161095693929190610db2565b60405180910390fd5b8181035f5f8673ffffffffffffffffffffffffffffffffffffffff1673ffffffffffffffffffffffffffffffffffffffff1681526020019081526020015f2081905550505b5f73ffffffffffffffffffffffffffffffffffffffff168273ffffffffffffffffffffffffffffffffffffffff16036109eb578060025f8282540392505081905550610a35565b805f5f8473ffffffffffffffffffffffffffffffffffffffff1673ffffffffffffffffffffffffffffffffffffffff1681526020019081526020015f205f82825401925050819055505b8173ffffffffffffffffffffffffffffffffffffffff168373ffffffffffffffffffffffffffffffffffffffff167fddf252ad1be2c89b69c2b068fc378daa952ba7f163c4a11628f55a4df523b3ef83604051610a929190610c40565b60405180910390a3505050565b5f81519050919050565b5f82825260208201905092915050565b8281835e5f83830152505050565b5f601f19601f8301169050919050565b5f610ae182610a9f565b610aeb8185610aa9565b9350610afb818560208601610ab9565b610b0481610ac7565b840191505092915050565b5f6020820190508181035f830152610b278184610ad7565b905092915050565b5f5ffd5b5f73ffffffffffffffffffffffffffffffffffffffff82169050919050565b5f610b5c82610b33565b9050919050565b610b6c81610b52565b8114610b76575f5ffd5b50565b5f81359050610b8781610b63565b92915050565b5f819050919050565b610b9f81610b8d565b8114610ba9575f5ffd5b50565b5f81359050610bba81610b96565b92915050565b5f5f60408385031215610bd657610bd5610b2f565b5b5f610be385828601610b79565b9250506020610bf485828601610bac565b9150509250929050565b5f8115159050919050565b610c1281610bfe565b82525050565b5f602082019050610c2b5f830184610c09565b92915050565b610c3a81610b8d565b82525050565b5f602082019050610c535f830184610c31565b92915050565b5f5f5f60608486031215610c7057610c6f610b2f565b5b5f610c7d86828701610b79565b9350506020610c8e86828701610b79565b9250506040610c9f86828701610bac565b9150509250925092565b5f60ff82169050919050565b610cbe81610ca9565b82525050565b5f602082019050610cd75f830184610cb5565b92915050565b5f60208284031215610cf257610cf1610b2f565b5b5f610cff84828501610b79565b91505092915050565b5f5f60408385031215610d1e57610d1d610b2f565b5b5f610d2b85828601610b79565b9250506020610d3c85828601610b79565b9150509250929050565b7f4e487b71000000000000000000000000000000000000000000000000000000005f52602260045260245ffd5b5f6002820490506001821680610d8a57607f821691505b602082108103610d9d57610d9c610d46565b5b50919050565b610dac81610b52565b82525050565b5f606082019050610dc55f830186610da3565b610dd26020830185610c31565b610ddf6040830184610c31565b949350505050565b5f602082019050610dfa5f830184610da3565b92915050565b7f4e487b71000000000000000000000000000000000000000000000000000000005f52601160045260245ffd5b5f610e3782610b8d565b9150610e4283610b8d565b9250828201905080821115610e5a57610e59610e00565b5b9291505056fea26469706673582212208dfc8379e4555de900c9d98ab090bdae364edb9d689055abd409f56715a6aed864736f6c63430008210033",
        "nonce": "0x4d",
        "chainId": "0x72"
      },
      "additionalContracts": [],
      "isFixedGasLimit": false
    },
    {
      "hash": "0xdc26f805703d15be47796d985af80c66da4e83863475221652aedfc85d5e4ea8",
      "transactionType": "CREATE",
      "contractName": "Pool",
      "contractAddress": "0x8aab16c7ff38f848ced6bcc5b12e7b4ae69dc2b3",
      "function": null,
      "arguments": [
        "0xf132A1d706327cfDa590892217AC217A67B07a0f"
      ],
      "transaction": {
        "from": "0xe96c20b1ad77ef2f8ebdaebb2e8e287629e5f671",
        "gas": "0x1da0c0",
        "value": "0x0",
        "input": "0x60a060405234801561000f575f5ffd5b50604051611b53380380611b53833981810160405281019061003191906100c9565b8073ffffffffffffffffffffffffffffffffffffffff1660808173ffffffffffffffffffffffffffffffffffffffff1681525050506100f4565b5f5ffd5b5f73ffffffffffffffffffffffffffffffffffffffff82169050919050565b5f6100988261006f565b9050919050565b6100a88161008e565b81146100b2575f5ffd5b50565b5f815190506100c38161009f565b92915050565b5f602082840312156100de576100dd61006b565b5b5f6100eb848285016100b5565b91505092915050565b608051611a1d6101365f395f81816103af01528181610415015281816108030152818161098201528181610d2b01528181610eb70152610fdc0152611a1d5ff3fe6080604052600436106100f6575f3560e01c80637292480011610089578063ccc5fd0911610058578063ccc5fd09146102e3578063ccff8ea11461030d578063d547da0d14610349578063eb105beb14610385576100fd565b8063729248001461024d57806390a5dbde14610275578063b5008f6c1461029d578063b8cec1c9146102a7576100fd565b806337c7a784116100c557806337c7a784146101b95780634695b3b9146101e157806349ea462d146102095780635767ec7614610231576100fd565b806322be3de1146101015780632333871e1461012b578063326404321461015357806336718bff1461017d576100fd565b366100fd57005b5f5ffd5b34801561010c575f5ffd5b506101156103ad565b6040516101229190611145565b60405180910390f35b348015610136575f5ffd5b50610151600480360381019061014c91906111c8565b6103d1565b005b34801561015e575f5ffd5b50610167610552565b6040516101749190611215565b60405180910390f35b348015610188575f5ffd5b506101a3600480360381019061019e9190611258565b610559565b6040516101b09190611215565b60405180910390f35b3480156101c4575f5ffd5b506101df60048036038101906101da9190611283565b61056e565b005b3480156101ec575f5ffd5b5061020760048036038101906102029190611283565b6107bf565b005b348015610214575f5ffd5b5061022f600480360381019061022a91906112ae565b610980565b005b61024b600480360381019061024691906112ec565b610a5e565b005b348015610258575f5ffd5b50610273600480360381019061026e91906111c8565b610b02565b005b348015610280575f5ffd5b5061029b60048036038101906102969190611352565b610b81565b005b6102a5610c2e565b005b3480156102b2575f5ffd5b506102cd60048036038101906102c891906112ec565b610d13565b6040516102da9190611215565b60405180910390f35b3480156102ee575f5ffd5b506102f7610d28565b6040516103049190611215565b60405180910390f35b348015610318575f5ffd5b50610333600480360381019061032e91906112ec565b610dc6565b6040516103409190611215565b60405180910390f35b348015610354575f5ffd5b5061036f600480360381019061036a9190611258565b610ddb565b60405161037c9190611215565b60405180910390f35b348015610390575f5ffd5b506103ab60048036038101906103a69190611283565b610def565b005b7f000000000000000000000000000000000000000000000000000000000000000081565b5f8111610413576040517f08c379a000000000000000000000000000000000000000000000000000000000815260040161040a906113ea565b60405180910390fd5b7f000000000000000000000000000000000000000000000000000000000000000073ffffffffffffffffffffffffffffffffffffffff166323b872dd3330846040518463ffffffff1660e01b815260040161047093929190611408565b6020604051808303815f875af115801561048c573d5f5f3e3d5ffd5b505050506040513d601f19601f820116820180604052508101906104b09190611472565b6104ef576040517f08c379a00000000000000000000000000000000000000000000000000000000081526004016104e6906114e7565b60405180910390fd5b8060025f8481526020019081526020015f205f82825461050f9190611532565b92505081905550817f092099cd92e9c3e25c230c739ef6e6b9cd5629edecc9c892c437c45911f9e4be826040516105469190611215565b60405180910390a25050565b5f47905090565b6001602052805f5260405f205f915090505481565b5f81116105b0576040517f08c379a00000000000000000000000000000000000000000000000000000000081526004016105a7906113ea565b60405180910390fd5b5f60015f3373ffffffffffffffffffffffffffffffffffffffff1673ffffffffffffffffffffffffffffffffffffffff1681526020019081526020015f2054905081811015610634576040517f08c379a000000000000000000000000000000000000000000000000000000000815260040161062b906115af565b60405180910390fd5b81471015610677576040517f08c379a000000000000000000000000000000000000000000000000000000000815260040161066e90611617565b60405180910390fd5b81816106839190611635565b60015f3373ffffffffffffffffffffffffffffffffffffffff1673ffffffffffffffffffffffffffffffffffffffff1681526020019081526020015f20819055505f3373ffffffffffffffffffffffffffffffffffffffff16836040516106e990611695565b5f6040518083038185875af1925050503d805f8114610723576040519150601f19603f3d011682016040523d82523d5f602084013e610728565b606091505b505090508061076c576040517f08c379a0000000000000000000000000000000000000000000000000000000008152600401610763906116f3565b60405180910390fd5b3373ffffffffffffffffffffffffffffffffffffffff167fe4340fa441d6ff9c451e522287925a28dec259e1f514ae814ab34626793b7a00846040516107b29190611215565b60405180910390a2505050565b5f8111610801576040517f08c379a00000000000000000000000000000000000000000000000000000000081526004016107f8906113ea565b60405180910390fd5b7f000000000000000000000000000000000000000000000000000000000000000073ffffffffffffffffffffffffffffffffffffffff166323b872dd3330846040518463ffffffff1660e01b815260040161085e93929190611408565b6020604051808303815f875af115801561087a573d5f5f3e3d5ffd5b505050506040513d601f19601f8201168201806040525081019061089e9190611472565b6108dd576040517f08c379a00000000000000000000000000000000000000000000000000000000081526004016108d4906114e7565b60405180910390fd5b805f5f3373ffffffffffffffffffffffffffffffffffffffff1673ffffffffffffffffffffffffffffffffffffffff1681526020019081526020015f205f8282546109289190611532565b925050819055503373ffffffffffffffffffffffffffffffffffffffff167fb5609df442b2d64c95edca3a0160c0f54452140b2ee33cfbd1649fd0cda197c5826040516109759190611215565b60405180910390a250565b7f000000000000000000000000000000000000000000000000000000000000000073ffffffffffffffffffffffffffffffffffffffff1663a9059cbb83836040518363ffffffff1660e01b81526004016109db929190611711565b6020604051808303815f875af11580156109f7573d5f5f3e3d5ffd5b505050506040513d601f19601f82011682018060405250810190610a1b9190611472565b610a5a576040517f08c379a0000000000000000000000000000000000000000000000000000000008152600401610a5190611782565b60405180910390fd5b5050565b5f3411610aa0576040517f08c379a0000000000000000000000000000000000000000000000000000000008152600401610a97906117ea565b60405180910390fd5b3460035f8381526020019081526020015f205f828254610ac09190611532565b92505081905550807f642ae6562d310da6e37fa4bffe38e7024946878616c9fc468facedbc76bd7be834604051610af79190611215565b60405180910390a250565b8060025f8481526020019081526020015f20541015610b56576040517f08c379a0000000000000000000000000000000000000000000000000000000008152600401610b4d90611852565b60405180910390fd5b8060025f8481526020019081526020015f205f828254610b769190611635565b925050819055505050565b5f8273ffffffffffffffffffffffffffffffffffffffff1682604051610ba690611695565b5f6040518083038185875af1925050503d805f8114610be0576040519150601f19603f3d011682016040523d82523d5f602084013e610be5565b606091505b5050905080610c29576040517f08c379a0000000000000000000000000000000000000000000000000000000008152600401610c20906118ba565b60405180910390fd5b505050565b5f3411610c70576040517f08c379a0000000000000000000000000000000000000000000000000000000008152600401610c67906117ea565b60405180910390fd5b3460015f3373ffffffffffffffffffffffffffffffffffffffff1673ffffffffffffffffffffffffffffffffffffffff1681526020019081526020015f205f828254610cbc9190611532565b925050819055503373ffffffffffffffffffffffffffffffffffffffff167f54ef25dad03f6f912eb5e4d4f5a24a1b34e39637815157e900b9f557ad17a85f34604051610d099190611215565b60405180910390a2565b6002602052805f5260405f205f915090505481565b5f7f000000000000000000000000000000000000000000000000000000000000000073ffffffffffffffffffffffffffffffffffffffff166370a08231306040518263ffffffff1660e01b8152600401610d829190611145565b602060405180830381865afa158015610d9d573d5f5f3e3d5ffd5b505050506040513d601f19601f82011682018060405250810190610dc191906118ec565b905090565b6003602052805f5260405f205f915090505481565b5f602052805f5260405f205f915090505481565b5f8111610e31576040517f08c379a0000000000000000000000000000000000000000000000000000000008152600401610e28906113ea565b60405180910390fd5b5f5f5f3373ffffffffffffffffffffffffffffffffffffffff1673ffffffffffffffffffffffffffffffffffffffff1681526020019081526020015f2054905081811015610eb4576040517f08c379a0000000000000000000000000000000000000000000000000000000008152600401610eab906115af565b60405180910390fd5b817f000000000000000000000000000000000000000000000000000000000000000073ffffffffffffffffffffffffffffffffffffffff166370a08231306040518263ffffffff1660e01b8152600401610f0e9190611145565b602060405180830381865afa158015610f29573d5f5f3e3d5ffd5b505050506040513d601f19601f82011682018060405250810190610f4d91906118ec565b1015610f8e576040517f08c379a0000000000000000000000000000000000000000000000000000000008152600401610f8590611961565b60405180910390fd5b8181610f9a9190611635565b5f5f3373ffffffffffffffffffffffffffffffffffffffff1673ffffffffffffffffffffffffffffffffffffffff1681526020019081526020015f20819055507f000000000000000000000000000000000000000000000000000000000000000073ffffffffffffffffffffffffffffffffffffffff1663a9059cbb33846040518363ffffffff1660e01b8152600401611035929190611711565b6020604051808303815f875af1158015611051573d5f5f3e3d5ffd5b505050506040513d601f19601f820116820180604052508101906110759190611472565b6110b4576040517f08c379a00000000000000000000000000000000000000000000000000000000081526004016110ab906119c9565b60405180910390fd5b3373ffffffffffffffffffffffffffffffffffffffff167f2497a398b48fce7b7da7eea6957f032e94850b3c086791005967fb50c58c5684836040516110fa9190611215565b60405180910390a25050565b5f73ffffffffffffffffffffffffffffffffffffffff82169050919050565b5f61112f82611106565b9050919050565b61113f81611125565b82525050565b5f6020820190506111585f830184611136565b92915050565b5f5ffd5b5f819050919050565b61117481611162565b811461117e575f5ffd5b50565b5f8135905061118f8161116b565b92915050565b5f819050919050565b6111a781611195565b81146111b1575f5ffd5b50565b5f813590506111c28161119e565b92915050565b5f5f604083850312156111de576111dd61115e565b5b5f6111eb85828601611181565b92505060206111fc858286016111b4565b9150509250929050565b61120f81611195565b82525050565b5f6020820190506112285f830184611206565b92915050565b61123781611125565b8114611241575f5ffd5b50565b5f813590506112528161122e565b92915050565b5f6020828403121561126d5761126c61115e565b5b5f61127a84828501611244565b91505092915050565b5f602082840312156112985761129761115e565b5b5f6112a5848285016111b4565b91505092915050565b5f5f604083850312156112c4576112c361115e565b5b5f6112d185828601611244565b92505060206112e2858286016111b4565b9150509250929050565b5f602082840312156113015761130061115e565b5b5f61130e84828501611181565b91505092915050565b5f61132182611106565b9050919050565b61133181611317565b811461133b575f5ffd5b50565b5f8135905061134c81611328565b92915050565b5f5f604083850312156113685761136761115e565b5b5f6113758582860161133e565b9250506020611386858286016111b4565b9150509250929050565b5f82825260208201905092915050565b7f616d6f756e743d300000000000000000000000000000000000000000000000005f82015250565b5f6113d4600883611390565b91506113df826113a0565b602082019050919050565b5f6020820190508181035f830152611401816113c8565b9050919050565b5f60608201905061141b5f830186611136565b6114286020830185611136565b6114356040830184611206565b949350505050565b5f8115159050919050565b6114518161143d565b811461145b575f5ffd5b50565b5f8151905061146c81611448565b92915050565b5f602082840312156114875761148661115e565b5b5f6114948482850161145e565b91505092915050565b7f7472616e73666572206661696c656400000000000000000000000000000000005f82015250565b5f6114d1600f83611390565b91506114dc8261149d565b602082019050919050565b5f6020820190508181035f8301526114fe816114c5565b9050919050565b7f4e487b71000000000000000000000000000000000000000000000000000000005f52601160045260245ffd5b5f61153c82611195565b915061154783611195565b925082820190508082111561155f5761155e611505565b5b92915050565b7f696e73756666696369656e7420696e766573746f722062616c616e63650000005f82015250565b5f611599601d83611390565b91506115a482611565565b602082019050919050565b5f6020820190508181035f8301526115c68161158d565b9050919050565b7f706f6f6c20464c5220756e64657266756e6465640000000000000000000000005f82015250565b5f611601601483611390565b915061160c826115cd565b602082019050919050565b5f6020820190508181035f83015261162e816115f5565b9050919050565b5f61163f82611195565b915061164a83611195565b925082820390508181111561166257611661611505565b5b92915050565b5f81905092915050565b50565b5f6116805f83611668565b915061168b82611672565b5f82019050919050565b5f61169f82611675565b9150819050919050565b7f666c72207769746864726177206661696c6564000000000000000000000000005f82015250565b5f6116dd601383611390565b91506116e8826116a9565b602082019050919050565b5f6020820190508181035f83015261170a816116d1565b9050919050565b5f6040820190506117245f830185611136565b6117316020830184611206565b9392505050565b7f737461626c65207061796f7574206661696c65640000000000000000000000005f82015250565b5f61176c601483611390565b915061177782611738565b602082019050919050565b5f6020820190508181035f83015261179981611760565b9050919050565b7f6e6f20464c5200000000000000000000000000000000000000000000000000005f82015250565b5f6117d4600683611390565b91506117df826117a0565b602082019050919050565b5f6020820190508181035f830152611801816117c8565b9050919050565b7f696e73756666696369656e742070756220737461626c652062756666657200005f82015250565b5f61183c601e83611390565b915061184782611808565b602082019050919050565b5f6020820190508181035f83015261186981611830565b9050919050565b7f666c72207061796f7574206661696c65640000000000000000000000000000005f82015250565b5f6118a4601183611390565b91506118af82611870565b602082019050919050565b5f6020820190508181035f8301526118d181611898565b9050919050565b5f815190506118e68161119e565b92915050565b5f602082840312156119015761190061115e565b5b5f61190e848285016118d8565b91505092915050565b7f706f6f6c20737461626c6520756e64657266756e6465640000000000000000005f82015250565b5f61194b601783611390565b915061195682611917565b602082019050919050565b5f6020820190508181035f8301526119788161193f565b9050919050565b7f737461626c65207769746864726177206661696c6564000000000000000000005f82015250565b5f6119b3601683611390565b91506119be8261197f565b602082019050919050565b5f6020820190508181035f8301526119e0816119a7565b905091905056fea26469706673582212202bc83d5c51c73ec7d470151a90ea1d549c63c0ec0a45baf8f10651959c0b084864736f6c63430008210033000000000000000000000000f132a1d706327cfda590892217ac217a67b07a0f",
        "nonce": "0x4e",
        "chainId": "0x72"
      },
      "additionalContracts": [],
      "isFixedGasLimit": false
    },
    {
      "hash": "0x36074a9cc3204b7508d86928e9fe5e582adbb6aa0b27b838b5a90eeb63d1487f",
      "transactionType": "CREATE",
      "contractName": "PubRegistry",
      "contractAddress": "0x2fbc246acb352104cfa6171362715f17065c5a27",
      "function": null,
      "arguments": null,
      "transaction": {
        "from": "0xe96c20b1ad77ef2f8ebdaebb2e8e287629e5f671",
        "gas": "0x86eef",
        "value": "0x0",
        "input": "0x6080604052348015600e575f5ffd5b506106bd8061001c5f395ff3fe608060405234801561000f575f5ffd5b506004361061003f575f3560e01c8063a56be5e414610043578063a96265c014610073578063f8fe269d1461008f575b5f5ffd5b61005d60048036038101906100589190610462565b6100ab565b60405161006a9190610526565b60405180910390f35b61008d60048036038101906100889190610569565b610199565b005b6100a960048036038101906100a49190610569565b6102d4565b005b6100b36103df565b5f5f8381526020019081526020015f206040518060600160405290815f82015f9054906101000a900473ffffffffffffffffffffffffffffffffffffffff1673ffffffffffffffffffffffffffffffffffffffff1673ffffffffffffffffffffffffffffffffffffffff168152602001600182015f9054906101000a900473ffffffffffffffffffffffffffffffffffffffff1673ffffffffffffffffffffffffffffffffffffffff1673ffffffffffffffffffffffffffffffffffffffff1681526020016001820160149054906101000a900460ff1615151515815250509050919050565b5f5f5f8481526020019081526020015f2090508060010160149054906101000a900460ff166101fd576040517f08c379a00000000000000000000000000000000000000000000000000000000081526004016101f490610601565b60405180910390fd5b805f015f9054906101000a900473ffffffffffffffffffffffffffffffffffffffff1673ffffffffffffffffffffffffffffffffffffffff163373ffffffffffffffffffffffffffffffffffffffff161461028d576040517f08c379a000000000000000000000000000000000000000000000000000000000815260040161028490610669565b60405180910390fd5b81816001015f6101000a81548173ffffffffffffffffffffffffffffffffffffffff021916908373ffffffffffffffffffffffffffffffffffffffff160217905550505050565b60405180606001604052808273ffffffffffffffffffffffffffffffffffffffff1681526020015f73ffffffffffffffffffffffffffffffffffffffff168152602001600115158152505f5f8481526020019081526020015f205f820151815f015f6101000a81548173ffffffffffffffffffffffffffffffffffffffff021916908373ffffffffffffffffffffffffffffffffffffffff1602179055506020820151816001015f6101000a81548173ffffffffffffffffffffffffffffffffffffffff021916908373ffffffffffffffffffffffffffffffffffffffff16021790555060408201518160010160146101000a81548160ff0219169083151502179055509050505050565b60405180606001604052805f73ffffffffffffffffffffffffffffffffffffffff1681526020015f73ffffffffffffffffffffffffffffffffffffffff1681526020015f151581525090565b5f5ffd5b5f819050919050565b6104418161042f565b811461044b575f5ffd5b50565b5f8135905061045c81610438565b92915050565b5f602082840312156104775761047661042b565b5b5f6104848482850161044e565b91505092915050565b5f73ffffffffffffffffffffffffffffffffffffffff82169050919050565b5f6104b68261048d565b9050919050565b6104c6816104ac565b82525050565b5f8115159050919050565b6104e0816104cc565b82525050565b606082015f8201516104fa5f8501826104bd565b50602082015161050d60208501826104bd565b50604082015161052060408501826104d7565b50505050565b5f6060820190506105395f8301846104e6565b92915050565b610548816104ac565b8114610552575f5ffd5b50565b5f813590506105638161053f565b92915050565b5f5f6040838503121561057f5761057e61042b565b5b5f61058c8582860161044e565b925050602061059d85828601610555565b9150509250929050565b5f82825260208201905092915050565b7f707562206e6f74207265676973746572656400000000000000000000000000005f82015250565b5f6105eb6012836105a7565b91506105f6826105b7565b602082019050919050565b5f6020820190508181035f830152610618816105df565b9050919050565b7f6e6f74207075622077616c6c65740000000000000000000000000000000000005f82015250565b5f610653600e836105a7565b915061065e8261061f565b602082019050919050565b5f6020820190508181035f83015261068081610647565b905091905056fea264697066735822122020d3f08dac0bfd615b1fb4aed889c13b198bcef49a2abe9913b82f1ec2e7c67264736f6c63430008210033",
        "nonce": "0x4f",
        "chainId": "0x72"
      },
      "additionalContracts": [],
      "isFixedGasLimit": false
    },
    {
      "hash": "0xef7e542f15d8daed93221fffdb65ebac2d40b31e399d39ed76e213e78e5ba38e",
      "transactionType": "CREATE",
      "contractName": "FtsoPriceOracle",
      "contractAddress": "0xeb7f36ed129c7d88ae400d1515542069270e0133",
      "function": null,
      "arguments": null,
      "transaction": {
        "from": "0xe96c20b1ad77ef2f8ebdaebb2e8e287629e5f671",
        "gas": "0x6188d",
        "value": "0x0",
        "input": "0x6080604052348015600e575f5ffd5b5061049a8061001c5f395ff3fe608060405234801561000f575f5ffd5b5060043610610034575f3560e01c8063096bbd28146100385780631ca0562214610056575b5f5ffd5b610040610075565b60405161004d9190610226565b60405180910390f35b61005e610091565b60405161006c929190610279565b60405180910390f35b7401464c522f5553440000000000000000000000000060581b81565b5f5f5f61009c610136565b90508073ffffffffffffffffffffffffffffffffffffffff166359feadf67401464c522f5553440000000000000000000000000060581b6040518263ffffffff1660e01b81526004016100ef9190610226565b6040805180830381865afa158015610109573d5f5f3e3d5ffd5b505050506040513d601f19601f8201168201806040525081019061012d91906102f8565b92509250509091565b5f73ad67fe66660fb8dfe9d6b1b4240d8650e30f601973ffffffffffffffffffffffffffffffffffffffff1663159354a260405160200161017690610390565b604051602081830303815290604052805190602001206040518263ffffffff1660e01b81526004016101a891906103c6565b602060405180830381865afa1580156101c3573d5f5f3e3d5ffd5b505050506040513d601f19601f820116820180604052508101906101e79190610439565b905090565b5f7fffffffffffffffffffffffffffffffffffffffffff000000000000000000000082169050919050565b610220816101ec565b82525050565b5f6020820190506102395f830184610217565b92915050565b5f819050919050565b6102518161023f565b82525050565b5f67ffffffffffffffff82169050919050565b61027381610257565b82525050565b5f60408201905061028c5f830185610248565b610299602083018461026a565b9392505050565b5f5ffd5b6102ad8161023f565b81146102b7575f5ffd5b50565b5f815190506102c8816102a4565b92915050565b6102d781610257565b81146102e1575f5ffd5b50565b5f815190506102f2816102ce565b92915050565b5f5f6040838503121561030e5761030d6102a0565b5b5f61031b858286016102ba565b925050602061032c858286016102e4565b9150509250929050565b5f82825260208201905092915050565b7f4674736f563200000000000000000000000000000000000000000000000000005f82015250565b5f61037a600683610336565b915061038582610346565b602082019050919050565b5f6020820190508181035f8301526103a78161036e565b9050919050565b5f819050919050565b6103c0816103ae565b82525050565b5f6020820190506103d95f8301846103b7565b92915050565b5f73ffffffffffffffffffffffffffffffffffffffff82169050919050565b5f610408826103df565b9050919050565b610418816103fe565b8114610422575f5ffd5b50565b5f815190506104338161040f565b92915050565b5f6020828403121561044e5761044d6102a0565b5b5f61045b84828501610425565b9150509291505056fea26469706673582212207dcf30e09ef091fd34a40534da34d96d4288b16f5c1a62188bd2102ac5384c1a64736f6c63430008210033",
        "nonce": "0x50",
        "chainId": "0x72"
      },
      "additionalContracts": [],
      "isFixedGasLimit": false
    },
    {
      "hash": "0x11d0bffcdd1a40e9ff224bc3e0140642fe193f21e5e7deb1f5b57ee08af838a1",
      "transactionType": "CREATE",
      "contractName": "SettlementEngine",
      "contractAddress": "0xd6d0fa5843bf59e47209a73cd34f8569a3cc1ab8",
      "function": null,
      "arguments": [
        "0x8AAB16C7Ff38f848Ced6BcC5B12E7B4AE69dC2B3",
        "0x2fBc246ACb352104CFA6171362715f17065C5a27",
        "0xEB7F36eD129C7D88Ae400D1515542069270e0133"
      ],
      "transaction": {
        "from": "0xe96c20b1ad77ef2f8ebdaebb2e8e287629e5f671",
        "gas": "0x1bc956",
        "value": "0x0",
        "input": "0x60e0604052674563918244f4000060015567016345785d8a0000600255348015610027575f5ffd5b506040516119c83803806119c883398181016040528101906100499190610186565b8273ffffffffffffffffffffffffffffffffffffffff1660808173ffffffffffffffffffffffffffffffffffffffff16815250508173ffffffffffffffffffffffffffffffffffffffff1660a08173ffffffffffffffffffffffffffffffffffffffff16815250508073ffffffffffffffffffffffffffffffffffffffff1660c08173ffffffffffffffffffffffffffffffffffffffff16815250505050506101d6565b5f5ffd5b5f73ffffffffffffffffffffffffffffffffffffffff82169050919050565b5f61011a826100f1565b9050919050565b61012a81610110565b8114610134575f5ffd5b50565b5f8151905061014581610121565b92915050565b5f610155826100f1565b9050919050565b6101658161014b565b811461016f575f5ffd5b50565b5f815190506101808161015c565b92915050565b5f5f5f6060848603121561019d5761019c6100ed565b5b5f6101aa86828701610137565b93505060206101bb86828701610172565b92505060406101cc86828701610172565b9150509250925092565b60805160a05160c0516117826102465f395f8181610441015261062401525f8181610221015261060001525f8181610190015281816102ff01528181610729015281816107d501528181610854015281816108cd01528181610a1701528181610aea0152610c3401526117825ff3fe608060405234801561000f575f5ffd5b5060043610610086575f3560e01c80637dc0d1d0116100595780637dc0d1d014610100578063b94f53511461011e578063c3f4b8d91461014e578063e6cdc4721461016c57610086565b80630102a0c01461008a57806316f0115b146100a85780632b3a3fb9146100c65780637b103999146100e2575b5f5ffd5b610092610188565b60405161009f9190610d1a565b60405180910390f35b6100b061018e565b6040516100bd9190610dad565b60405180910390f35b6100e060048036038101906100db9190610e30565b6101b2565b005b6100ea6105fe565b6040516100f79190610ec5565b60405180910390f35b610108610622565b6040516101159190610efe565b60405180910390f35b61013860048036038101906101339190610f17565b610646565b6040516101459190610f6f565b60405180910390f35b61015661066f565b6040516101639190610d1a565b60405180910390f35b61018660048036038101906101819190610f88565b610675565b005b60025481565b7f000000000000000000000000000000000000000000000000000000000000000081565b5f5f8581526020019081526020015f205f8481526020019081526020015f205f9054906101000a900460ff161561021e576040517f08c379a000000000000000000000000000000000000000000000000000000000815260040161021590611032565b60405180910390fd5b5f7f000000000000000000000000000000000000000000000000000000000000000073ffffffffffffffffffffffffffffffffffffffff1663a56be5e4866040518263ffffffff1660e01b8152600401610278919061105f565b606060405180830381865afa158015610293573d5f5f3e3d5ffd5b505050506040513d601f19601f820116820180604052508101906102b791906111ca565b905080604001516102fd576040517f08c379a00000000000000000000000000000000000000000000000000000000081526004016102f49061123f565b60405180910390fd5b7f000000000000000000000000000000000000000000000000000000000000000073ffffffffffffffffffffffffffffffffffffffff16637292480086856040518363ffffffff1660e01b815260040161035892919061125d565b5f604051808303815f87803b15801561036f575f5ffd5b505af1158015610381573d5f5f3e3d5ffd5b5050505083857ffcb6999ff4cbd411ea358cfb6e3b929dc17cd3fde53bdd52c5fb5520af3127f6856040516103b69190610d1a565b60405180910390a35f820361043d5760015f5f8781526020019081526020015f205f8681526020019081526020015f205f6101000a81548160ff02191690831515021790555083857f2ec2a30b4c5d7cc91a641dc9ec17cdd9eb5fbef96041e939a4808e54016421335f5f60405161042f9291906112bd565b60405180910390a3506105f8565b5f5f7f000000000000000000000000000000000000000000000000000000000000000073ffffffffffffffffffffffffffffffffffffffff16631ca056226040518163ffffffff1660e01b81526004016040805180830381865afa1580156104a7573d5f5f3e3d5ffd5b505050506040513d601f19601f820116820180604052508101906104cb9190611335565b915091505f8211610511576040517f08c379a0000000000000000000000000000000000000000000000000000000008152600401610508906113bd565b60405180910390fd5b7f3b11d1586f4a2b570cf8d770514ccb60a72bcaa0b3c3b12739ddf0d6f3e130bd82826040516105429291906113ea565b60405180910390a15f82670de0b6b3a764000086610560919061143e565b61056a91906114ac565b905086887f2ec2a30b4c5d7cc91a641dc9ec17cdd9eb5fbef96041e939a4808e5401642133878460405161059f9291906114dc565b60405180910390a36105bc8888865f015187602001518986610726565b60015f5f8a81526020019081526020015f205f8981526020019081526020015f205f6101000a81548160ff021916908315150217905550505050505b50505050565b7f000000000000000000000000000000000000000000000000000000000000000081565b7f000000000000000000000000000000000000000000000000000000000000000081565b5f602052815f5260405f20602052805f5260405f205f915091509054906101000a900460ff1681565b60015481565b60648111156106b9576040517f08c379a00000000000000000000000000000000000000000000000000000000081526004016106b09061154d565b60405180910390fd5b5f8160646106c7919061156b565b6002546106d4919061143e565b6001546106e1919061159e565b90505f5f9050603283101561071357671bc16d674ec80000836032610706919061156b565b610710919061143e565b90505b61071f858584846101b2565b5050505050565b5f7f000000000000000000000000000000000000000000000000000000000000000073ffffffffffffffffffffffffffffffffffffffff166322be3de16040518163ffffffff1660e01b8152600401602060405180830381865afa158015610790573d5f5f3e3d5ffd5b505050506040513d601f19601f820116820180604052508101906107b491906115d1565b90505f8173ffffffffffffffffffffffffffffffffffffffff166370a082317f00000000000000000000000000000000000000000000000000000000000000006040518263ffffffff1660e01b8152600401610810919061160b565b602060405180830381865afa15801561082b573d5f5f3e3d5ffd5b505050506040513d601f19601f8201168201806040525081019061084f9190611624565b90505f7f000000000000000000000000000000000000000000000000000000000000000073ffffffffffffffffffffffffffffffffffffffff163190505f5f73ffffffffffffffffffffffffffffffffffffffff168773ffffffffffffffffffffffffffffffffffffffff161490508015610ae157848210610997577f000000000000000000000000000000000000000000000000000000000000000073ffffffffffffffffffffffffffffffffffffffff166390a5dbde89876040518363ffffffff1660e01b815260040161092692919061166f565b5f604051808303815f87803b15801561093d575f5ffd5b505af115801561094f573d5f5f3e3d5ffd5b50505050888a7f851c9b0a723d2190c1789bbbcd9f7eaf17a7c98dae645a1c45d44c037be56c695f88604051610986929190611696565b60405180910390a350505050610cfa565b858310156109da576040517f08c379a00000000000000000000000000000000000000000000000000000000081526004016109d190611707565b60405180910390fd5b888a7f2183319f044ada5a43ebd8cfa998d48e7c8fb8c389105ba9b9a4d2bfe84362885f87604051610a0d929190611725565b60405180910390a37f000000000000000000000000000000000000000000000000000000000000000073ffffffffffffffffffffffffffffffffffffffff166349ea462d89886040518363ffffffff1660e01b8152600401610a70929190611696565b5f604051808303815f87803b158015610a87575f5ffd5b505af1158015610a99573d5f5f3e3d5ffd5b50505050888a7f851c9b0a723d2190c1789bbbcd9f7eaf17a7c98dae645a1c45d44c037be56c698689604051610ad0929190611696565b60405180910390a350505050610cfa565b858310610bb4577f000000000000000000000000000000000000000000000000000000000000000073ffffffffffffffffffffffffffffffffffffffff166349ea462d89886040518363ffffffff1660e01b8152600401610b43929190611696565b5f604051808303815f87803b158015610b5a575f5ffd5b505af1158015610b6c573d5f5f3e3d5ffd5b50505050888a7f851c9b0a723d2190c1789bbbcd9f7eaf17a7c98dae645a1c45d44c037be56c698689604051610ba3929190611696565b60405180910390a350505050610cfa565b84821015610bf7576040517f08c379a0000000000000000000000000000000000000000000000000000000008152600401610bee90611707565b60405180910390fd5b888a7f2183319f044ada5a43ebd8cfa998d48e7c8fb8c389105ba9b9a4d2bfe8436288865f604051610c2a929190611725565b60405180910390a37f000000000000000000000000000000000000000000000000000000000000000073ffffffffffffffffffffffffffffffffffffffff166390a5dbde89876040518363ffffffff1660e01b8152600401610c8d92919061166f565b5f604051808303815f87803b158015610ca4575f5ffd5b505af1158015610cb6573d5f5f3e3d5ffd5b50505050888a7f851c9b0a723d2190c1789bbbcd9f7eaf17a7c98dae645a1c45d44c037be56c695f88604051610ced929190611696565b60405180910390a3505050505b505050505050565b5f819050919050565b610d1481610d02565b82525050565b5f602082019050610d2d5f830184610d0b565b92915050565b5f73ffffffffffffffffffffffffffffffffffffffff82169050919050565b5f819050919050565b5f610d75610d70610d6b84610d33565b610d52565b610d33565b9050919050565b5f610d8682610d5b565b9050919050565b5f610d9782610d7c565b9050919050565b610da781610d8d565b82525050565b5f602082019050610dc05f830184610d9e565b92915050565b5f604051905090565b5f5ffd5b5f819050919050565b610de581610dd3565b8114610def575f5ffd5b50565b5f81359050610e0081610ddc565b92915050565b610e0f81610d02565b8114610e19575f5ffd5b50565b5f81359050610e2a81610e06565b92915050565b5f5f5f5f60808587031215610e4857610e47610dcf565b5b5f610e5587828801610df2565b9450506020610e6687828801610df2565b9350506040610e7787828801610e1c565b9250506060610e8887828801610e1c565b91505092959194509250565b5f610e9e82610d5b565b9050919050565b5f610eaf82610e94565b9050919050565b610ebf81610ea5565b82525050565b5f602082019050610ed85f830184610eb6565b92915050565b5f610ee882610e94565b9050919050565b610ef881610ede565b82525050565b5f602082019050610f115f830184610eef565b92915050565b5f5f60408385031215610f2d57610f2c610dcf565b5b5f610f3a85828601610df2565b9250506020610f4b85828601610df2565b9150509250929050565b5f8115159050919050565b610f6981610f55565b82525050565b5f602082019050610f825f830184610f60565b92915050565b5f5f5f60608486031215610f9f57610f9e610dcf565b5b5f610fac86828701610df2565b9350506020610fbd86828701610df2565b9250506040610fce86828701610e1c565b9150509250925092565b5f82825260208201905092915050565b7f616c726561647920736574746c656400000000000000000000000000000000005f82015250565b5f61101c600f83610fd8565b915061102782610fe8565b602082019050919050565b5f6020820190508181035f83015261104981611010565b9050919050565b61105981610dd3565b82525050565b5f6020820190506110725f830184611050565b92915050565b5f5ffd5b5f601f19601f8301169050919050565b7f4e487b71000000000000000000000000000000000000000000000000000000005f52604160045260245ffd5b6110c28261107c565b810181811067ffffffffffffffff821117156110e1576110e061108c565b5b80604052505050565b5f6110f3610dc6565b90506110ff82826110b9565b919050565b5f61110e82610d33565b9050919050565b61111e81611104565b8114611128575f5ffd5b50565b5f8151905061113981611115565b92915050565b61114881610f55565b8114611152575f5ffd5b50565b5f815190506111638161113f565b92915050565b5f6060828403121561117e5761117d611078565b5b61118860606110ea565b90505f6111978482850161112b565b5f8301525060206111aa8482850161112b565b60208301525060406111be84828501611155565b60408301525092915050565b5f606082840312156111df576111de610dcf565b5b5f6111ec84828501611169565b91505092915050565b7f707562206e6f7420666f756e64000000000000000000000000000000000000005f82015250565b5f611229600d83610fd8565b9150611234826111f5565b602082019050919050565b5f6020820190508181035f8301526112568161121d565b9050919050565b5f6040820190506112705f830185611050565b61127d6020830184610d0b565b9392505050565b5f819050919050565b5f6112a76112a261129d84611284565b610d52565b610d02565b9050919050565b6112b78161128d565b82525050565b5f6040820190506112d05f8301856112ae565b6112dd60208301846112ae565b9392505050565b5f815190506112f281610e06565b92915050565b5f67ffffffffffffffff82169050919050565b611314816112f8565b811461131e575f5ffd5b50565b5f8151905061132f8161130b565b92915050565b5f5f6040838503121561134b5761134a610dcf565b5b5f611358858286016112e4565b925050602061136985828601611321565b9150509250929050565b7f626164206f7261636c65207072696365000000000000000000000000000000005f82015250565b5f6113a7601083610fd8565b91506113b282611373565b602082019050919050565b5f6020820190508181035f8301526113d48161139b565b9050919050565b6113e4816112f8565b82525050565b5f6040820190506113fd5f830185610d0b565b61140a60208301846113db565b9392505050565b7f4e487b71000000000000000000000000000000000000000000000000000000005f52601160045260245ffd5b5f61144882610d02565b915061145383610d02565b925082820261146181610d02565b9150828204841483151761147857611477611411565b5b5092915050565b7f4e487b71000000000000000000000000000000000000000000000000000000005f52601260045260245ffd5b5f6114b682610d02565b91506114c183610d02565b9250826114d1576114d061147f565b5b828204905092915050565b5f6040820190506114ef5f830185610d0b565b6114fc6020830184610d0b565b9392505050565b7f73636f7265206f7574206f662072616e676500000000000000000000000000005f82015250565b5f611537601283610fd8565b915061154282611503565b602082019050919050565b5f6020820190508181035f8301526115648161152b565b9050919050565b5f61157582610d02565b915061158083610d02565b925082820390508181111561159857611597611411565b5b92915050565b5f6115a882610d02565b91506115b383610d02565b92508282019050808211156115cb576115ca611411565b5b92915050565b5f602082840312156115e6576115e5610dcf565b5b5f6115f38482850161112b565b91505092915050565b61160581611104565b82525050565b5f60208201905061161e5f8301846115fc565b92915050565b5f6020828403121561163957611638610dcf565b5b5f611646848285016112e4565b91505092915050565b5f61165982610d33565b9050919050565b6116698161164f565b82525050565b5f6040820190506116825f830185611660565b61168f6020830184610d0b565b9392505050565b5f6040820190506116a95f8301856115fc565b6116b66020830184610d0b565b9392505050565b7f706f6f6c20756e64657266756e646564000000000000000000000000000000005f82015250565b5f6116f1601083610fd8565b91506116fc826116bd565b602082019050919050565b5f6020820190508181035f83015261171e816116e5565b9050919050565b5f6040820190506117385f8301856115fc565b61174560208301846115fc565b939250505056fea26469706673582212200d0fe872488547b88bb9529b413d04076169e1156698133676818d899ea8887564736f6c634300082100330000000000000000000000008aab16c7ff38f848ced6bcc5b12e7b4ae69dc2b30000000000000000000000002fbc246acb352104cfa6171362715f17065c5a27000000000000000000000000eb7f36ed129c7d88ae400d1515542069270e0133",
        "nonce": "0x51",
        "chainId": "0x72"
      },
      "additionalContracts": [],
      "isFixedGasLimit": false
    },
    {
      "hash": "0xe7f108006d4416ee8b547f1e55d436ff8382230f8582798f9ba7bf5997a1b848",
      "transactionType": "CALL",
      "contractName": "PubRegistry",
      "contractAddress": "0x2fbc246acb352104cfa6171362715f17065c5a27",
      "function": "registerPub(bytes32,address)",
      "arguments": [
        "0x398d826052cc107050228a98308c34680aa0dce7d605593f6f73182fe2804534",
        "0xe96c20B1Ad77Ef2f8EbDAeBb2e8e287629e5f671"
      ],
      "transaction": {
        "from": "0xe96c20b1ad77ef2f8ebdaebb2e8e287629e5f671",
        "to": "0x2fbc246acb352104cfa6171362715f17065c5a27",
        "gas": "0x16bf5",
        "value": "0x0",
        "input": "0xf8fe269d398d826052cc107050228a98308c34680aa0dce7d605593f6f73182fe2804534000000000000000000000000e96c20b1ad77ef2f8ebdaebb2e8e287629e5f671",
        "nonce": "0x52",
        "chainId": "0x72"
      },
      "additionalContracts": [],
      "isFixedGasLimit": false
    },
    {
      "hash": "0x142490b286ad7ef26e8fea3b6f4b5c2751c110fae478e0672778d1490986dd3d",
      "transactionType": "CALL",
      "contractName": "MockUSD",
      "contractAddress": "0xf132a1d706327cfda590892217ac217a67b07a0f",
      "function": "mint(address,uint256)",
      "arguments": [
        "0xe96c20B1Ad77Ef2f8EbDAeBb2e8e287629e5f671",
        "1000000000000000000000"
      ],
      "transaction": {
        "from": "0xe96c20b1ad77ef2f8ebdaebb2e8e287629e5f671",
        "to": "0xf132a1d706327cfda590892217ac217a67b07a0f",
        "gas": "0x173ef",
        "value": "0x0",
        "input": "0x40c10f19000000000000000000000000e96c20b1ad77ef2f8ebdaebb2e8e287629e5f67100000000000000000000000000000000000000000000003635c9adc5dea00000",
        "nonce": "0x53",
        "chainId": "0x72"
      },
      "additionalContracts": [],
      "isFixedGasLimit": false
    },
    {
      "hash": "0x759c843016f333ac3a8c5927ff2065cfce98cc6a58968445d44a13d192e980d7",
      "transactionType": "CALL",
      "contractName": "MockUSD",
      "contractAddress": "0xf132a1d706327cfda590892217ac217a67b07a0f",
      "function": "approve(address,uint256)",
      "arguments": [
        "0x8AAB16C7Ff38f848Ced6BcC5B12E7B4AE69dC2B3",
        "115792089237316195423570985008687907853269984665640564039457584007913129639935"
      ],
      "transaction": {
        "from": "0xe96c20b1ad77ef2f8ebdaebb2e8e287629e5f671",
        "to": "0xf132a1d706327cfda590892217ac217a67b07a0f",
        "gas": "0xfee1",
        "value": "0x0",
        "input": "0x095ea7b30000000000000000000000008aab16c7ff38f848ced6bcc5b12e7b4ae69dc2b3ffffffffffffffffffffffffffffffffffffffffffffffffffffffffffffffff",
        "nonce": "0x54",
        "chainId": "0x72"
      },
      "additionalContracts": [],
      "isFixedGasLimit": false
    },
    {
      "hash": "0x2ad9482c24b8124a3a1518275df6c1accd983ab2b19f657b66b8040d11b84cd7",
      "transactionType": "CALL",
      "contractName": "Pool",
      "contractAddress": "0x8aab16c7ff38f848ced6bcc5b12e7b4ae69dc2b3",
      "function": "prefundStablePub(bytes32,uint256)",
      "arguments": [
        "0x398d826052cc107050228a98308c34680aa0dce7d605593f6f73182fe2804534",
        "300000000000000000000"
      ],
      "transaction": {
        "from": "0xe96c20b1ad77ef2f8ebdaebb2e8e287629e5f671",
        "to": "0x8aab16c7ff38f848ced6bcc5b12e7b4ae69dc2b3",
        "gas": "0x1da2f",
        "value": "0x0",
        "input": "0x2333871e398d826052cc107050228a98308c34680aa0dce7d605593f6f73182fe280453400000000000000000000000000000000000000000000001043561a8829300000",
        "nonce": "0x55",
        "chainId": "0x72"
      },
      "additionalContracts": [],
      "isFixedGasLimit": false
    },
    {
      "hash": "0x2651f4a6705c6a71b2954c3a87b1125d9db768b8071ca6ffd03b65ebeffc958c",
      "transactionType": "CALL",
      "contractName": "Pool",
      "contractAddress": "0x8aab16c7ff38f848ced6bcc5b12e7b4ae69dc2b3",
      "function": "depositStableInvestor(uint256)",
      "arguments": [
        "200000000000000000000"
      ],
      "transaction": {
        "from": "0xe96c20b1ad77ef2f8ebdaebb2e8e287629e5f671",
        "to": "0x8aab16c7ff38f848ced6bcc5b12e7b4ae69dc2b3",
        "gas": "0x174ad",
        "value": "0x0",
        "input": "0x4695b3b900000000000000000000000000000000000000000000000ad78ebc5ac6200000",
        "nonce": "0x56",
        "chainId": "0x72"
      },
      "additionalContracts": [],
      "isFixedGasLimit": false
    },
    {
      "hash": "0x4f4557db64bbacd302cf0336dc6ce3a4cfa5aece0292316b9f50499f6f726cf0",
      "transactionType": "CALL",
      "contractName": null,
      "contractAddress": "0x8aab16c7ff38f848ced6bcc5b12e7b4ae69dc2b3",
      "function": null,
      "arguments": null,
      "transaction": {
        "from": "0xe96c20b1ad77ef2f8ebdaebb2e8e287629e5f671",
        "to": "0x8aab16c7ff38f848ced6bcc5b12e7b4ae69dc2b3",
        "gas": "0x7199",
        "value": "0x4563918244f40000",
        "input": "0x",
        "nonce": "0x57",
        "chainId": "0x72"
      },
      "additionalContracts": [],
      "isFixedGasLimit": false
    },
    {
      "hash": "0x5921ee1cc286a21eb5bfc994a1920f55dc9d7601ae66deb138cb695cc61a1a2a",
      "transactionType": "CALL",
      "contractName": "PubRegistry",
      "contractAddress": "0x2fbc246acb352104cfa6171362715f17065c5a27",
      "function": "setPayoutToken(bytes32,address)",
      "arguments": [
        "0x398d826052cc107050228a98308c34680aa0dce7d605593f6f73182fe2804534",
        "0xf132A1d706327cfDa590892217AC217A67B07a0f"
      ],
      "transaction": {
        "from": "0xe96c20b1ad77ef2f8ebdaebb2e8e287629e5f671",
        "to": "0x2fbc246acb352104cfa6171362715f17065c5a27",
        "gas": "0xabfc",
        "value": "0x0",
        "input": "0xa96265c0398d826052cc107050228a98308c34680aa0dce7d605593f6f73182fe2804534000000000000000000000000f132a1d706327cfda590892217ac217a67b07a0f",
        "nonce": "0x58",
        "chainId": "0x72"
      },
      "additionalContracts": [],
      "isFixedGasLimit": false
    },
    {
      "hash": "0x10cb23f6bd4d057eae1b6b16699e1e800a58489305dfa666f2efe5dfe8af3a23",
      "transactionType": "CALL",
      "contractName": "SettlementEngine",
      "contractAddress": "0xd6d0fa5843bf59e47209a73cd34f8569a3cc1ab8",
      "function": "settleWithQuote(bytes32,bytes32,uint256,uint256)",
      "arguments": [
        "0x398d826052cc107050228a98308c34680aa0dce7d605593f6f73182fe2804534",
        "0x73912fa00029b558df7bdf661ed6c296f8ac5f2422bad3cfd660012843908b07",
        "12000000000000000000",
        "30000000000000000000"
      ],
      "transaction": {
        "from": "0xe96c20b1ad77ef2f8ebdaebb2e8e287629e5f671",
        "to": "0xd6d0fa5843bf59e47209a73cd34f8569a3cc1ab8",
        "gas": "0x3ef64",
        "value": "0x0",
        "input": "0x2b3a3fb9398d826052cc107050228a98308c34680aa0dce7d605593f6f73182fe280453473912fa00029b558df7bdf661ed6c296f8ac5f2422bad3cfd660012843908b07000000000000000000000000000000000000000000000000a688906bd8b00000000000000000000000000000000000000000000000000001a055690d9db80000",
        "nonce": "0x59",
        "chainId": "0x72"
      },
      "additionalContracts": [],
      "isFixedGasLimit": false
    },
    {
      "hash": "0x76dbdba5ce98730c2e03e5f169001bbef336c75e2ea3305bb41eb1cc10ef90ed",
      "transactionType": "CALL",
      "contractName": "PubRegistry",
      "contractAddress": "0x2fbc246acb352104cfa6171362715f17065c5a27",
      "function": "setPayoutToken(bytes32,address)",
      "arguments": [
        "0x398d826052cc107050228a98308c34680aa0dce7d605593f6f73182fe2804534",
        "0x0000000000000000000000000000000000000000"
      ],
      "transaction": {
        "from": "0xe96c20b1ad77ef2f8ebdaebb2e8e287629e5f671",
        "to": "0x2fbc246acb352104cfa6171362715f17065c5a27",
        "gas": "0xaa9d",
        "value": "0x0",
        "input": "0xa96265c0398d826052cc107050228a98308c34680aa0dce7d605593f6f73182fe28045340000000000000000000000000000000000000000000000000000000000000000",
        "nonce": "0x5a",
        "chainId": "0x72"
      },
      "additionalContracts": [],
      "isFixedGasLimit": false
    },
    {
      "hash": "0xe4ed55a0e7130f62b0f4e9b034071ddcaa2a5a1ae8d02e906650e1d54a236de4",
      "transactionType": "CALL",
      "contractName": "SettlementEngine",
      "contractAddress": "0xd6d0fa5843bf59e47209a73cd34f8569a3cc1ab8",
      "function": "settleWithQuote(bytes32,bytes32,uint256,uint256)",
      "arguments": [
        "0x398d826052cc107050228a98308c34680aa0dce7d605593f6f73182fe2804534",
        "0x90a3d73670c7d5b3e34e06be00aac6651e25b6eefecacf40ea26148c87becf80",
        "10000000000000000000",
        "8000000000000000000"
      ],
      "transaction": {
        "from": "0xe96c20b1ad77ef2f8ebdaebb2e8e287629e5f671",
        "to": "0xd6d0fa5843bf59e47209a73cd34f8569a3cc1ab8",
        "gas": "0x3fd1d",
        "value": "0x0",
        "input": "0x2b3a3fb9398d826052cc107050228a98308c34680aa0dce7d605593f6f73182fe280453490a3d73670c7d5b3e34e06be00aac6651e25b6eefecacf40ea26148c87becf800000000000000000000000000000000000000000000000008ac7230489e800000000000000000000000000000000000000000000000000006f05b59d3b200000",
        "nonce": "0x5b",
        "chainId": "0x72"
      },
      "additionalContracts": [],
      "isFixedGasLimit": false
    }
  ],
  "receipts": [
    {
      "status": "0x1",
      "cumulativeGasUsed": "0xf5012",
      "logs": [],
      "logsBloom": "0x00000000000000000000000000000000000000000000000000000000000000000000000000000000000000000000000000000000000000000000000000000000000000000000000000000000000000000000000000000000000000000000000000000000000000000000000000000000000000000000000000000000000000000000000000000000000000000000000000000000000000000000000000000000000000000000000000000000000000000000000000000000000000000000000000000000000000000000000000000000000000000000000000000000000000000000000000000000000000000000000000000000000000000000000000000000",
      "type": "0x0",
      "transactionHash": "0x8fb7d45b5dfb53894b7e25cf1b20ca5380e988684263ce30ee6a3b881bb6b814",
      "transactionIndex": "0x1",
      "blockHash": "0x9c92ee3ed6d47cfe8ac0639152c4e846982105a7872b35e070d9d1aab5de344a",
      "blockNumber": "0x19bfd0e",
      "gasUsed": "0xdfe65",
      "effectiveGasPrice": "0x5d21dba01",
      "from": "0xe96c20b1ad77ef2f8ebdaebb2e8e287629e5f671",
      "to": null,
      "contractAddress": "0xf132a1d706327cfda590892217ac217a67b07a0f"
    },
    {
      "status": "0x1",
      "cumulativeGasUsed": "0x261a7f",
      "logs": [],
      "logsBloom": "0x00000000000000000000000000000000000000000000000000000000000000000000000000000000000000000000000000000000000000000000000000000000000000000000000000000000000000000000000000000000000000000000000000000000000000000000000000000000000000000000000000000000000000000000000000000000000000000000000000000000000000000000000000000000000000000000000000000000000000000000000000000000000000000000000000000000000000000000000000000000000000000000000000000000000000000000000000000000000000000000000000000000000000000000000000000000",
      "type": "0x0",
      "transactionHash": "0xef7e542f15d8daed93221fffdb65ebac2d40b31e399d39ed76e213e78e5ba38e",
      "transactionIndex": "0x2",
      "blockHash": "0x9c92ee3ed6d47cfe8ac0639152c4e846982105a7872b35e070d9d1aab5de344a",
      "blockNumber": "0x19bfd0e",
      "gasUsed": "0x16ca6d",
      "effectiveGasPrice": "0x5d21dba01",
      "from": "0xe96c20b1ad77ef2f8ebdaebb2e8e287629e5f671",
      "to": null,
      "contractAddress": "0x8aab16c7ff38f848ced6bcc5b12e7b4ae69dc2b3"
    },
    {
      "status": "0x1",
      "cumulativeGasUsed": "0x2c9737",
      "logs": [],
      "logsBloom": "0x00000000000000000000000000000000000000000000000000000000000000000000000000000000000000000000000000000000000000000000000000000000000000000000000000000000000000000000000000000000000000000000000000000000000000000000000000000000000000000000000000000000000000000000000000000000000000000000000000000000000000000000000000000000000000000000000000000000000000000000000000000000000000000000000000000000000000000000000000000000000000000000000000000000000000000000000000000000000000000000000000000000000000000000000000000000",
      "type": "0x0",
      "transactionHash": "0xdc26f805703d15be47796d985af80c66da4e83863475221652aedfc85d5e4ea8",
      "transactionIndex": "0x3",
      "blockHash": "0x9c92ee3ed6d47cfe8ac0639152c4e846982105a7872b35e070d9d1aab5de344a",
      "blockNumber": "0x19bfd0e",
      "gasUsed": "0x67cb8",
      "effectiveGasPrice": "0x5d21dba01",
      "from": "0xe96c20b1ad77ef2f8ebdaebb2e8e287629e5f671",
      "to": null,
      "contractAddress": "0x2fbc246acb352104cfa6171362715f17065c5a27"
    },
    {
      "status": "0x1",
      "cumulativeGasUsed": "0x3147a4",
      "logs": [],
      "logsBloom": "0x00000000000000000000000000000000000000000000000000000000000000000000000000000000000000000000000000000000000000000000000000000000000000000000000000000000000000000000000000000000000000000000000000000000000000000000000000000000000000000000000000000000000000000000000000000000000000000000000000000000000000000000000000000000000000000000000000000000000000000000000000000000000000000000000000000000000000000000000000000000000000000000000000000000000000000000000000000000000000000000000000000000000000000000000000000000",
      "type": "0x0",
      "transactionHash": "0x36074a9cc3204b7508d86928e9fe5e582adbb6aa0b27b838b5a90eeb63d1487f",
      "transactionIndex": "0x4",
      "blockHash": "0x9c92ee3ed6d47cfe8ac0639152c4e846982105a7872b35e070d9d1aab5de344a",
      "blockNumber": "0x19bfd0e",
      "gasUsed": "0x4b06d",
      "effectiveGasPrice": "0x5d21dba01",
      "from": "0xe96c20b1ad77ef2f8ebdaebb2e8e287629e5f671",
      "to": null,
      "contractAddress": "0xeb7f36ed129c7d88ae400d1515542069270e0133"
    },
    {
      "status": "0x1",
      "cumulativeGasUsed": "0x46a770",
      "logs": [],
      "logsBloom": "0x00000000000000000000000000000000000000000000000000000000000000000000000000000000000000000000000000000000000000000000000000000000000000000000000000000000000000000000000000000000000000000000000000000000000000000000000000000000000000000000000000000000000000000000000000000000000000000000000000000000000000000000000000000000000000000000000000000000000000000000000000000000000000000000000000000000000000000000000000000000000000000000000000000000000000000000000000000000000000000000000000000000000000000000000000000000",
      "type": "0x0",
      "transactionHash": "0x2ad9482c24b8124a3a1518275df6c1accd983ab2b19f657b66b8040d11b84cd7",
      "transactionIndex": "0x5",
      "blockHash": "0x9c92ee3ed6d47cfe8ac0639152c4e846982105a7872b35e070d9d1aab5de344a",
      "blockNumber": "0x19bfd0e",
      "gasUsed": "0x155fcc",
      "effectiveGasPrice": "0x5d21dba01",
      "from": "0xe96c20b1ad77ef2f8ebdaebb2e8e287629e5f671",
      "to": null,
      "contractAddress": "0xd6d0fa5843bf59e47209a73cd34f8569a3cc1ab8"
    },
    {
      "status": "0x1",
      "cumulativeGasUsed": "0x47aef0",
      "logs": [],
      "logsBloom": "0x00000000000000000000000000000000000000000000000000000000000000000000000000000000000000000000000000000000000000000000000000000000000000000000000000000000000000000000000000000000000000000000000000000000000000000000000000000000000000000000000000000000000000000000000000000000000000000000000000000000000000000000000000000000000000000000000000000000000000000000000000000000000000000000000000000000000000000000000000000000000000000000000000000000000000000000000000000000000000000000000000000000000000000000000000000000",
      "type": "0x0",
      "transactionHash": "0x10cb23f6bd4d057eae1b6b16699e1e800a58489305dfa666f2efe5dfe8af3a23",
      "transactionIndex": "0x6",
      "blockHash": "0x9c92ee3ed6d47cfe8ac0639152c4e846982105a7872b35e070d9d1aab5de344a",
      "blockNumber": "0x19bfd0e",
      "gasUsed": "0x10780",
      "effectiveGasPrice": "0x5d21dba01",
      "from": "0xe96c20b1ad77ef2f8ebdaebb2e8e287629e5f671",
      "to": "0x2fbc246acb352104cfa6171362715f17065c5a27",
      "contractAddress": null
    },
    {
      "status": "0x1",
      "cumulativeGasUsed": "0x48bc37",
      "logs": [
        {
          "address": "0xf132a1d706327cfda590892217ac217a67b07a0f",
          "topics": [
            "0xddf252ad1be2c89b69c2b068fc378daa952ba7f163c4a11628f55a4df523b3ef",
            "0x0000000000000000000000000000000000000000000000000000000000000000",
            "0x000000000000000000000000e96c20b1ad77ef2f8ebdaebb2e8e287629e5f671"
          ],
          "data": "0x00000000000000000000000000000000000000000000003635c9adc5dea00000",
          "blockHash": "0x9c92ee3ed6d47cfe8ac0639152c4e846982105a7872b35e070d9d1aab5de344a",
          "blockNumber": "0x19bfd0e",
          "transactionHash": "0xe4ed55a0e7130f62b0f4e9b034071ddcaa2a5a1ae8d02e906650e1d54a236de4",
          "transactionIndex": "0x7",
          "logIndex": "0x7",
          "removed": false
        }
      ],
      "logsBloom": "0x00000000000000000000000000000000000000000000000000000000000000000000000000000000000000000000000000040000000000000000000000000000000000000000000000000008000000000000000000002000000000000000000001000000020000000000000000000800000000000000000000000010000000000000000000000000000000000000000000000000000000000000000000000000000000000000000000000000000000800000000000000000000000000000000000000002000000000000000000000000000000000000000000000800000020000000000000000000000001000000000000000000000000000000000000000000",
      "type": "0x0",
      "transactionHash": "0xe4ed55a0e7130f62b0f4e9b034071ddcaa2a5a1ae8d02e906650e1d54a236de4",
      "transactionIndex": "0x7",
      "blockHash": "0x9c92ee3ed6d47cfe8ac0639152c4e846982105a7872b35e070d9d1aab5de344a",
      "blockNumber": "0x19bfd0e",
      "gasUsed": "0x10d47",
      "effectiveGasPrice": "0x5d21dba01",
      "from": "0xe96c20b1ad77ef2f8ebdaebb2e8e287629e5f671",
      "to": "0xf132a1d706327cfda590892217ac217a67b07a0f",
      "contractAddress": null
    },
    {
      "status": "0x1",
      "cumulativeGasUsed": "0x4974bf",
      "logs": [
        {
          "address": "0xf132a1d706327cfda590892217ac217a67b07a0f",
          "topics": [
            "0x8c5be1e5ebec7d5bd14f71427d1e84f3dd0314c0f7b2291e5b200ac8c7c3b925",
            "0x000000000000000000000000e96c20b1ad77ef2f8ebdaebb2e8e287629e5f671",
            "0x0000000000000000000000008aab16c7ff38f848ced6bcc5b12e7b4ae69dc2b3"
          ],
          "data": "0xffffffffffffffffffffffffffffffffffffffffffffffffffffffffffffffff",
          "blockHash": "0x9c92ee3ed6d47cfe8ac0639152c4e846982105a7872b35e070d9d1aab5de344a",
          "blockNumber": "0x19bfd0e",
          "transactionHash": "0x4f4557db64bbacd302cf0336dc6ce3a4cfa5aece0292316b9f50499f6f726cf0",
          "transactionIndex": "0x8",
          "logIndex": "0x8",
          "removed": false
        }
      ],
      "logsBloom": "0x00000000000000000000000000000000000000000000000000000000000000000000000000000000000000000000000000040010000000000000000000200000000000000000000000000000000000000000000000002000000000000200000001000000000000000000000000000000000000008000000000000000000000000000000000000000000000000000000000000000000000000000000000000000020000000000000000000000000000800000000000000000000000000000000000000000000000000000000000000000000000000000000000000800000000000010000000000000000001000000000000000000000000000000000000000000",
      "type": "0x0",
      "transactionHash": "0x4f4557db64bbacd302cf0336dc6ce3a4cfa5aece0292316b9f50499f6f726cf0",
      "transactionIndex": "0x8",
      "blockHash": "0x9c92ee3ed6d47cfe8ac0639152c4e846982105a7872b35e070d9d1aab5de344a",
      "blockNumber": "0x19bfd0e",
      "gasUsed": "0xb888",
      "effectiveGasPrice": "0x5d21dba01",
      "from": "0xe96c20b1ad77ef2f8ebdaebb2e8e287629e5f671",
      "to": "0xf132a1d706327cfda590892217ac217a67b07a0f",
      "contractAddress": null
    },
    {
      "status": "0x1",
      "cumulativeGasUsed": "0x4ab8fa",
      "logs": [
        {
          "address": "0xf132a1d706327cfda590892217ac217a67b07a0f",
          "topics": [
            "0xddf252ad1be2c89b69c2b068fc378daa952ba7f163c4a11628f55a4df523b3ef",
            "0x000000000000000000000000e96c20b1ad77ef2f8ebdaebb2e8e287629e5f671",
            "0x0000000000000000000000008aab16c7ff38f848ced6bcc5b12e7b4ae69dc2b3"
          ],
          "data": "0x00000000000000000000000000000000000000000000001043561a8829300000",
          "blockHash": "0x9c92ee3ed6d47cfe8ac0639152c4e846982105a7872b35e070d9d1aab5de344a",
          "blockNumber": "0x19bfd0e",
          "transactionHash": "0x76dbdba5ce98730c2e03e5f169001bbef336c75e2ea3305bb41eb1cc10ef90ed",
          "transactionIndex": "0x9",
          "logIndex": "0x9",
          "removed": false
        },
        {
          "address": "0x8aab16c7ff38f848ced6bcc5b12e7b4ae69dc2b3",
          "topics": [
            "0x092099cd92e9c3e25c230c739ef6e6b9cd5629edecc9c892c437c45911f9e4be",
            "0x398d826052cc107050228a98308c34680aa0dce7d605593f6f73182fe2804534"
          ],
          "data": "0x00000000000000000000000000000000000000000000001043561a8829300000",
          "blockHash": "0x9c92ee3ed6d47cfe8ac0639152c4e846982105a7872b35e070d9d1aab5de344a",
          "blockNumber": "0x19bfd0e",
          "transactionHash": "0x76dbdba5ce98730c2e03e5f169001bbef336c75e2ea3305bb41eb1cc10ef90ed",
          "transactionIndex": "0x9",
          "logIndex": "0xa",
          "removed": false
        }
      ],
      "logsBloom": "0x00000000000000000000000000000000000000000000000000000000000000000000000000000000000000000000000000040010000000000000000000000000000000000000000000000008000000010000000000002000000000000200000001000000000000000000000000000000000000008008000000000010000000000000001000000000000000000000000000000000020000040000000000000000000000000000000000000000000000800100000000000008000000000000010000008002000000000000000000000000000000000000000000000800000000000000000000000000000001000000000000000000000000000000000000000000",
      "type": "0x0",
      "transactionHash": "0x76dbdba5ce98730c2e03e5f169001bbef336c75e2ea3305bb41eb1cc10ef90ed",
      "transactionIndex": "0x9",
      "blockHash": "0x9c92ee3ed6d47cfe8ac0639152c4e846982105a7872b35e070d9d1aab5de344a",
      "blockNumber": "0x19bfd0e",
      "gasUsed": "0x1443b",
      "effectiveGasPrice": "0x5d21dba01",
      "from": "0xe96c20b1ad77ef2f8ebdaebb2e8e287629e5f671",
      "to": "0x8aab16c7ff38f848ced6bcc5b12e7b4ae69dc2b3",
      "contractAddress": null
    },
    {
      "status": "0x1",
      "cumulativeGasUsed": "0x4bb7cd",
      "logs": [
        {
          "address": "0xf132a1d706327cfda590892217ac217a67b07a0f",
          "topics": [
            "0xddf252ad1be2c89b69c2b068fc378daa952ba7f163c4a11628f55a4df523b3ef",
            "0x000000000000000000000000e96c20b1ad77ef2f8ebdaebb2e8e287629e5f671",
            "0x0000000000000000000000008aab16c7ff38f848ced6bcc5b12e7b4ae69dc2b3"
          ],
          "data": "0x00000000000000000000000000000000000000000000000ad78ebc5ac6200000",
          "blockHash": "0x9c92ee3ed6d47cfe8ac0639152c4e846982105a7872b35e070d9d1aab5de344a",
          "blockNumber": "0x19bfd0e",
          "transactionHash": "0x5921ee1cc286a21eb5bfc994a1920f55dc9d7601ae66deb138cb695cc61a1a2a",
          "transactionIndex": "0xa",
          "logIndex": "0xb",
          "removed": false
        },
        {
          "address": "0x8aab16c7ff38f848ced6bcc5b12e7b4ae69dc2b3",
          "topics": [
            "0xb5609df442b2d64c95edca3a0160c0f54452140b2ee33cfbd1649fd0cda197c5",
            "0x000000000000000000000000e96c20b1ad77ef2f8ebdaebb2e8e287629e5f671"
          ],
          "data": "0x00000000000000000000000000000000000000000000000ad78ebc5ac6200000",
          "blockHash": "0x9c92ee3ed6d47cfe8ac0639152c4e846982105a7872b35e070d9d1aab5de344a",
          "blockNumber": "0x19bfd0e",
          "transactionHash": "0x5921ee1cc286a21eb5bfc994a1920f55dc9d7601ae66deb138cb695cc61a1a2a",
          "transactionIndex": "0xa",
          "logIndex": "0xc",
          "removed": false
        }
      ],
      "logsBloom": "0x00000000000000000000000000000000000000000000000000000000000000000000000000000000000000000000000000040010000000000000000000000000000000000000000000000008000000010000000000002000000000000200000001000000000000000000000000000000000000008000000000000010000000000000000000000000000000000000000000100000000000040000000000000000000000000020000000000000000000800100000000000000020000000000000000000002000000000000000000000000000000000000000000000800000000000000000000000000000001000000000000000000000000000000000000000000",
      "type": "0x0",
      "transactionHash": "0x5921ee1cc286a21eb5bfc994a1920f55dc9d7601ae66deb138cb695cc61a1a2a",
      "transactionIndex": "0xa",
      "blockHash": "0x9c92ee3ed6d47cfe8ac0639152c4e846982105a7872b35e070d9d1aab5de344a",
      "blockNumber": "0x19bfd0e",
      "gasUsed": "0xfed3",
      "effectiveGasPrice": "0x5d21dba01",
      "from": "0xe96c20b1ad77ef2f8ebdaebb2e8e287629e5f671",
      "to": "0x8aab16c7ff38f848ced6bcc5b12e7b4ae69dc2b3",
      "contractAddress": null
    },
    {
      "status": "0x1",
      "cumulativeGasUsed": "0x4c0a0c",
      "logs": [],
      "logsBloom": "0x00000000000000000000000000000000000000000000000000000000000000000000000000000000000000000000000000000000000000000000000000000000000000000000000000000000000000000000000000000000000000000000000000000000000000000000000000000000000000000000000000000000000000000000000000000000000000000000000000000000000000000000000000000000000000000000000000000000000000000000000000000000000000000000000000000000000000000000000000000000000000000000000000000000000000000000000000000000000000000000000000000000000000000000000000000000",
      "type": "0x0",
      "transactionHash": "0x142490b286ad7ef26e8fea3b6f4b5c2751c110fae478e0672778d1490986dd3d",
      "transactionIndex": "0xb",
      "blockHash": "0x9c92ee3ed6d47cfe8ac0639152c4e846982105a7872b35e070d9d1aab5de344a",
      "blockNumber": "0x19bfd0e",
      "gasUsed": "0x523f",
      "effectiveGasPrice": "0x5d21dba01",
      "from": "0xe96c20b1ad77ef2f8ebdaebb2e8e287629e5f671",
      "to": "0x8aab16c7ff38f848ced6bcc5b12e7b4ae69dc2b3",
      "contractAddress": null
    },
    {
      "status": "0x1",
      "cumulativeGasUsed": "0x4c7fa5",
      "logs": [],
      "logsBloom": "0x00000000000000000000000000000000000000000000000000000000000000000000000000000000000000000000000000000000000000000000000000000000000000000000000000000000000000000000000000000000000000000000000000000000000000000000000000000000000000000000000000000000000000000000000000000000000000000000000000000000000000000000000000000000000000000000000000000000000000000000000000000000000000000000000000000000000000000000000000000000000000000000000000000000000000000000000000000000000000000000000000000000000000000000000000000000",
      "type": "0x0",
      "transactionHash": "0xe7f108006d4416ee8b547f1e55d436ff8382230f8582798f9ba7bf5997a1b848",
      "transactionIndex": "0xc",
      "blockHash": "0x9c92ee3ed6d47cfe8ac0639152c4e846982105a7872b35e070d9d1aab5de344a",
      "blockNumber": "0x19bfd0e",
      "gasUsed": "0x7599",
      "effectiveGasPrice": "0x5d21dba01",
      "from": "0xe96c20b1ad77ef2f8ebdaebb2e8e287629e5f671",
      "to": "0x2fbc246acb352104cfa6171362715f17065c5a27",
      "contractAddress": null
    },
    {
      "status": "0x1",
      "cumulativeGasUsed": "0x4f3076",
      "logs": [
        {
          "address": "0xd6d0fa5843bf59e47209a73cd34f8569a3cc1ab8",
          "topics": [
            "0xfcb6999ff4cbd411ea358cfb6e3b929dc17cd3fde53bdd52c5fb5520af3127f6",
            "0x398d826052cc107050228a98308c34680aa0dce7d605593f6f73182fe2804534",
            "0x73912fa00029b558df7bdf661ed6c296f8ac5f2422bad3cfd660012843908b07"
          ],
          "data": "0x000000000000000000000000000000000000000000000000a688906bd8b00000",
          "blockHash": "0x9c92ee3ed6d47cfe8ac0639152c4e846982105a7872b35e070d9d1aab5de344a",
          "blockNumber": "0x19bfd0e",
          "transactionHash": "0x11d0bffcdd1a40e9ff224bc3e0140642fe193f21e5e7deb1f5b57ee08af838a1",
          "transactionIndex": "0xd",
          "logIndex": "0xd",
          "removed": false
        },
        {
          "address": "0xd6d0fa5843bf59e47209a73cd34f8569a3cc1ab8",
          "topics": [
            "0x3b11d1586f4a2b570cf8d770514ccb60a72bcaa0b3c3b12739ddf0d6f3e130bd"
          ],
          "data": "0x00000000000000000000000000000000000000000000000000220a8160d82800000000000000000000000000000000000000000000000000000000006987e89e",
          "blockHash": "0x9c92ee3ed6d47cfe8ac0639152c4e846982105a7872b35e070d9d1aab5de344a",
          "blockNumber": "0x19bfd0e",
          "transactionHash": "0x11d0bffcdd1a40e9ff224bc3e0140642fe193f21e5e7deb1f5b57ee08af838a1",
          "transactionIndex": "0xd",
          "logIndex": "0xe",
          "removed": false
        },
        {
          "address": "0xd6d0fa5843bf59e47209a73cd34f8569a3cc1ab8",
          "topics": [
            "0x2ec2a30b4c5d7cc91a641dc9ec17cdd9eb5fbef96041e939a4808e5401642133",
            "0x398d826052cc107050228a98308c34680aa0dce7d605593f6f73182fe2804534",
            "0x73912fa00029b558df7bdf661ed6c296f8ac5f2422bad3cfd660012843908b07"
          ],
          "data": "0x000000000000000000000000000000000000000000000001a055690d9db800000000000000000000000000000000000000000000000000a9baea4af9aebb7200",
          "blockHash": "0x9c92ee3ed6d47cfe8ac0639152c4e846982105a7872b35e070d9d1aab5de344a",
          "blockNumber": "0x19bfd0e",
          "transactionHash": "0x11d0bffcdd1a40e9ff224bc3e0140642fe193f21e5e7deb1f5b57ee08af838a1",
          "transactionIndex": "0xd",
          "logIndex": "0xf",
          "removed": false
        },
        {
          "address": "0xf132a1d706327cfda590892217ac217a67b07a0f",
          "topics": [
            "0xddf252ad1be2c89b69c2b068fc378daa952ba7f163c4a11628f55a4df523b3ef",
            "0x0000000000000000000000008aab16c7ff38f848ced6bcc5b12e7b4ae69dc2b3",
            "0x000000000000000000000000e96c20b1ad77ef2f8ebdaebb2e8e287629e5f671"
          ],
          "data": "0x000000000000000000000000000000000000000000000001a055690d9db80000",
          "blockHash": "0x9c92ee3ed6d47cfe8ac0639152c4e846982105a7872b35e070d9d1aab5de344a",
          "blockNumber": "0x19bfd0e",
          "transactionHash": "0x11d0bffcdd1a40e9ff224bc3e0140642fe193f21e5e7deb1f5b57ee08af838a1",
          "transactionIndex": "0xd",
          "logIndex": "0x10",
          "removed": false
        },
        {
          "address": "0xd6d0fa5843bf59e47209a73cd34f8569a3cc1ab8",
          "topics": [
            "0x851c9b0a723d2190c1789bbbcd9f7eaf17a7c98dae645a1c45d44c037be56c69",
            "0x398d826052cc107050228a98308c34680aa0dce7d605593f6f73182fe2804534",
            "0x73912fa00029b558df7bdf661ed6c296f8ac5f2422bad3cfd660012843908b07"
          ],
          "data": "0x000000000000000000000000f132a1d706327cfda590892217ac217a67b07a0f000000000000000000000000000000000000000000000001a055690d9db80000",
          "blockHash": "0x9c92ee3ed6d47cfe8ac0639152c4e846982105a7872b35e070d9d1aab5de344a",
          "blockNumber": "0x19bfd0e",
          "transactionHash": "0x11d0bffcdd1a40e9ff224bc3e0140642fe193f21e5e7deb1f5b57ee08af838a1",
          "transactionIndex": "0xd",
          "logIndex": "0x11",
          "removed": false
        }
      ],
      "logsBloom": "0x0000000000100000000000000000002100000000000000000000000000001000000000000000000004000000040000000004001000000000000000000000000000000000000000000000000800000000000000000000200000000000030000000140000000000000000000000000000000000000a008000000000010080000000000000000000000000000020000000000000000020000000000000000000000000000000000000800000000000000800000000000000808000000000000000000000002000000008000000000000000000000000100000000000800000000000000000000000100000001080000000000000000000000000000000000000000",
      "type": "0x0",
      "transactionHash": "0x11d0bffcdd1a40e9ff224bc3e0140642fe193f21e5e7deb1f5b57ee08af838a1",
      "transactionIndex": "0xd",
      "blockHash": "0x9c92ee3ed6d47cfe8ac0639152c4e846982105a7872b35e070d9d1aab5de344a",
      "blockNumber": "0x19bfd0e",
      "gasUsed": "0x2b0d1",
      "effectiveGasPrice": "0x5d21dba01",
      "from": "0xe96c20b1ad77ef2f8ebdaebb2e8e287629e5f671",
      "to": "0xd6d0fa5843bf59e47209a73cd34f8569a3cc1ab8",
      "contractAddress": null
    },
    {
      "status": "0x1",
      "cumulativeGasUsed": "0x4fa51f",
      "logs": [],
      "logsBloom": "0x00000000000000000000000000000000000000000000000000000000000000000000000000000000000000000000000000000000000000000000000000000000000000000000000000000000000000000000000000000000000000000000000000000000000000000000000000000000000000000000000000000000000000000000000000000000000000000000000000000000000000000000000000000000000000000000000000000000000000000000000000000000000000000000000000000000000000000000000000000000000000000000000000000000000000000000000000000000000000000000000000000000000000000000000000000000",
      "type": "0x0",
      "transactionHash": "0x759c843016f333ac3a8c5927ff2065cfce98cc6a58968445d44a13d192e980d7",
      "transactionIndex": "0xe",
      "blockHash": "0x9c92ee3ed6d47cfe8ac0639152c4e846982105a7872b35e070d9d1aab5de344a",
      "blockNumber": "0x19bfd0e",
      "gasUsed": "0x74a9",
      "effectiveGasPrice": "0x5d21dba01",
      "from": "0xe96c20b1ad77ef2f8ebdaebb2e8e287629e5f671",
      "to": "0x2fbc246acb352104cfa6171362715f17065c5a27",
      "contractAddress": null
    },
    {
      "status": "0x1",
      "cumulativeGasUsed": "0x525f52",
      "logs": [
        {
          "address": "0xd6d0fa5843bf59e47209a73cd34f8569a3cc1ab8",
          "topics": [
            "0xfcb6999ff4cbd411ea358cfb6e3b929dc17cd3fde53bdd52c5fb5520af3127f6",
            "0x398d826052cc107050228a98308c34680aa0dce7d605593f6f73182fe2804534",
            "0x90a3d73670c7d5b3e34e06be00aac6651e25b6eefecacf40ea26148c87becf80"
          ],
          "data": "0x0000000000000000000000000000000000000000000000008ac7230489e80000",
          "blockHash": "0x9c92ee3ed6d47cfe8ac0639152c4e846982105a7872b35e070d9d1aab5de344a",
          "blockNumber": "0x19bfd0e",
          "transactionHash": "0x2651f4a6705c6a71b2954c3a87b1125d9db768b8071ca6ffd03b65ebeffc958c",
          "transactionIndex": "0xf",
          "logIndex": "0x12",
          "removed": false
        },
        {
          "address": "0xd6d0fa5843bf59e47209a73cd34f8569a3cc1ab8",
          "topics": [
            "0x3b11d1586f4a2b570cf8d770514ccb60a72bcaa0b3c3b12739ddf0d6f3e130bd"
          ],
          "data": "0x00000000000000000000000000000000000000000000000000220a8160d82800000000000000000000000000000000000000000000000000000000006987e89e",
          "blockHash": "0x9c92ee3ed6d47cfe8ac0639152c4e846982105a7872b35e070d9d1aab5de344a",
          "blockNumber": "0x19bfd0e",
          "transactionHash": "0x2651f4a6705c6a71b2954c3a87b1125d9db768b8071ca6ffd03b65ebeffc958c",
          "transactionIndex": "0xf",
          "logIndex": "0x13",
          "removed": false
        },
        {
          "address": "0xd6d0fa5843bf59e47209a73cd34f8569a3cc1ab8",
          "topics": [
            "0x2ec2a30b4c5d7cc91a641dc9ec17cdd9eb5fbef96041e939a4808e5401642133",
            "0x398d826052cc107050228a98308c34680aa0dce7d605593f6f73182fe2804534",
            "0x90a3d73670c7d5b3e34e06be00aac6651e25b6eefecacf40ea26148c87becf80"
          ],
          "data": "0x0000000000000000000000000000000000000000000000006f05b59d3b20000000000000000000000000000000000000000000000000002d42e9250f61cb95dd",
          "blockHash": "0x9c92ee3ed6d47cfe8ac0639152c4e846982105a7872b35e070d9d1aab5de344a",
          "blockNumber": "0x19bfd0e",
          "transactionHash": "0x2651f4a6705c6a71b2954c3a87b1125d9db768b8071ca6ffd03b65ebeffc958c",
          "transactionIndex": "0xf",
          "logIndex": "0x14",
          "removed": false
        },
        {
          "address": "0xd6d0fa5843bf59e47209a73cd34f8569a3cc1ab8",
          "topics": [
            "0x2183319f044ada5a43ebd8cfa998d48e7c8fb8c389105ba9b9a4d2bfe8436288",
            "0x398d826052cc107050228a98308c34680aa0dce7d605593f6f73182fe2804534",
            "0x90a3d73670c7d5b3e34e06be00aac6651e25b6eefecacf40ea26148c87becf80"
          ],
          "data": "0x0000000000000000000000000000000000000000000000000000000000000000000000000000000000000000f132a1d706327cfda590892217ac217a67b07a0f",
          "blockHash": "0x9c92ee3ed6d47cfe8ac0639152c4e846982105a7872b35e070d9d1aab5de344a",
          "blockNumber": "0x19bfd0e",
          "transactionHash": "0x2651f4a6705c6a71b2954c3a87b1125d9db768b8071ca6ffd03b65ebeffc958c",
          "transactionIndex": "0xf",
          "logIndex": "0x15",
          "removed": false
        },
        {
          "address": "0xf132a1d706327cfda590892217ac217a67b07a0f",
          "topics": [
            "0xddf252ad1be2c89b69c2b068fc378daa952ba7f163c4a11628f55a4df523b3ef",
            "0x0000000000000000000000008aab16c7ff38f848ced6bcc5b12e7b4ae69dc2b3",
            "0x000000000000000000000000e96c20b1ad77ef2f8ebdaebb2e8e287629e5f671"
          ],
          "data": "0x0000000000000000000000000000000000000000000000006f05b59d3b200000",
          "blockHash": "0x9c92ee3ed6d47cfe8ac0639152c4e846982105a7872b35e070d9d1aab5de344a",
          "blockNumber": "0x19bfd0e",
          "transactionHash": "0x2651f4a6705c6a71b2954c3a87b1125d9db768b8071ca6ffd03b65ebeffc958c",
          "transactionIndex": "0xf",
          "logIndex": "0x16",
          "removed": false
        },
        {
          "address": "0xd6d0fa5843bf59e47209a73cd34f8569a3cc1ab8",
          "topics": [
            "0x851c9b0a723d2190c1789bbbcd9f7eaf17a7c98dae645a1c45d44c037be56c69",
            "0x398d826052cc107050228a98308c34680aa0dce7d605593f6f73182fe2804534",
            "0x90a3d73670c7d5b3e34e06be00aac6651e25b6eefecacf40ea26148c87becf80"
          ],
          "data": "0x000000000000000000000000f132a1d706327cfda590892217ac217a67b07a0f0000000000000000000000000000000000000000000000006f05b59d3b200000",
          "blockHash": "0x9c92ee3ed6d47cfe8ac0639152c4e846982105a7872b35e070d9d1aab5de344a",
          "blockNumber": "0x19bfd0e",
          "transactionHash": "0x2651f4a6705c6a71b2954c3a87b1125d9db768b8071ca6ffd03b65ebeffc958c",
          "transactionIndex": "0xf",
          "logIndex": "0x17",
          "removed": false
        }
      ],
      "logsBloom": "0x8000000000100000000000000000000100000000000000000000000000000000000000000000000004000000040000000004001000000000000000000000000000000000000000000000000800000000000000000000200000000000030000000140000000000000000040000000000000000000a008000000000010080000000000000000000000000000020200000000000000020000000000000000000000000000000000000900000000000000800000000000000808000000000000000008000002000000008000000000000000000000000100000000000800000000000000000000000100000001080000000000000010000000000000000000000000",
      "type": "0x0",
      "transactionHash": "0x2651f4a6705c6a71b2954c3a87b1125d9db768b8071ca6ffd03b65ebeffc958c",
      "transactionIndex": "0xf",
      "blockHash": "0x9c92ee3ed6d47cfe8ac0639152c4e846982105a7872b35e070d9d1aab5de344a",
      "blockNumber": "0x19bfd0e",
      "gasUsed": "0x2ba33",
      "effectiveGasPrice": "0x5d21dba01",
      "from": "0xe96c20b1ad77ef2f8ebdaebb2e8e287629e5f671",
      "to": "0xd6d0fa5843bf59e47209a73cd34f8569a3cc1ab8",
      "contractAddress": null
    }
  ],
  "libraries": [],
  "pending": [],
  "returns": {},
  "timestamp": 1770514595339,
  "chain": 114,
  "commit": null
}