{
  "transactions": [
    {
      "hash": "0x607cc7bffeb8550709b508a427378f94ee160e929a8f1a48e531a54c95aa3ee5",
      "transactionType": "CREATE",
      "contractName": "MockUSD",
      "contractAddress": "0x88a84517fb7487720742f5dfa74f3c7214ac7da1",
      "function": null,
      "arguments": null,
      "transaction": {
        "from": "0xe96c20b1ad77ef2f8ebdaebb2e8e287629e5f671",
        "gas": "0x12311c",
        "value": "0x0",
        "input": "0x608060405234801561000f575f5ffd5b506040518060400160405280600881526020017f4d6f636b205553440000000000000000000000000000000000000000000000008152506040518060400160405280600481526020017f6d55534400000000000000000000000000000000000000000000000000000000815250816003908161008b91906102f1565b50806004908161009b91906102f1565b5050506103c0565b5f81519050919050565b7f4e487b71000000000000000000000000000000000000000000000000000000005f52604160045260245ffd5b7f4e487b71000000000000000000000000000000000000000000000000000000005f52602260045260245ffd5b5f600282049050600182168061011e57607f821691505b602082108103610131576101306100da565b5b50919050565b5f819050815f5260205f209050919050565b5f6020601f8301049050919050565b5f82821b905092915050565b5f600883026101937fffffffffffffffffffffffffffffffffffffffffffffffffffffffffffffffff82610158565b61019d8683610158565b95508019841693508086168417925050509392505050565b5f819050919050565b5f819050919050565b5f6101e16101dc6101d7846101b5565b6101be565b6101b5565b9050919050565b5f819050919050565b6101fa836101c7565b61020e610206826101e8565b848454610164565b825550505050565b5f5f905090565b610225610216565b6102308184846101f1565b505050565b5f5b828110156102565761024b5f82840161021d565b600181019050610237565b505050565b601f8211156102a957828211156102a85761027581610137565b61027e83610149565b61028785610149565b6020861015610294575f90505b8083016102a382840382610235565b505050505b5b505050565b5f82821c905092915050565b5f6102c95f19846008026102ae565b1980831691505092915050565b5f6102e183836102ba565b9150826002028217905092915050565b6102fa826100a3565b67ffffffffffffffff811115610313576103126100ad565b5b61031d8254610107565b61032882828561025b565b5f60209050601f831160018114610359575f8415610347578287015190505b61035185826102d6565b8655506103b8565b601f19841661036786610137565b5f5b8281101561038e57848901518255600182019150602085019450602081019050610369565b868310156103ab57848901516103a7601f8916826102ba565b8355505b6001600288020188555050505b505050505050565b610e96806103cd5f395ff3fe608060405234801561000f575f5ffd5b506004361061009c575f3560e01c806340c10f191161006457806340c10f191461015a57806370a082311461017657806395d89b41146101a6578063a9059cbb146101c4578063dd62ed3e146101f45761009c565b806306fdde03146100a0578063095ea7b3146100be57806318160ddd146100ee57806323b872dd1461010c578063313ce5671461013c575b5f5ffd5b6100a8610224565b6040516100b59190610b0f565b60405180910390f35b6100d860048036038101906100d39190610bc0565b6102b4565b6040516100e59190610c18565b60405180910390f35b6100f66102d6565b6040516101039190610c40565b60405180910390f35b61012660048036038101906101219190610c59565b6102df565b6040516101339190610c18565b60405180910390f35b61014461030d565b6040516101519190610cc4565b60405180910390f35b610174600480360381019061016f9190610bc0565b610315565b005b610190600480360381019061018b9190610cdd565b610323565b60405161019d9190610c40565b60405180910390f35b6101ae610368565b6040516101bb9190610b0f565b60405180910390f35b6101de60048036038101906101d99190610bc0565b6103f8565b6040516101eb9190610c18565b60405180910390f35b61020e60048036038101906102099190610d08565b61041a565b60405161021b9190610c40565b60405180910390f35b60606003805461023390610d73565b80601f016020809104026020016040519081016040528092919081815260200182805461025f90610d73565b80156102aa5780601f10610281576101008083540402835291602001916102aa565b820191905f5260205f20905b81548152906001019060200180831161028d57829003601f168201915b5050505050905090565b5f5f6102be61049c565b90506102cb8185856104a3565b600191505092915050565b5f600254905090565b5f5f6102e961049c565b90506102f68582856104b5565b610301858585610548565b60019150509392505050565b5f6012905090565b61031f8282610638565b5050565b5f5f5f8373ffffffffffffffffffffffffffffffffffffffff1673ffffffffffffffffffffffffffffffffffffffff1681526020019081526020015f20549050919050565b60606004805461037790610d73565b80601f01602080910402602001604051908101604052809291908181526020018280546103a390610d73565b80156103ee5780601f106103c5576101008083540402835291602001916103ee565b820191905f5260205f20905b8154815290600101906020018083116103d157829003601f168201915b5050505050905090565b5f5f61040261049c565b905061040f818585610548565b600191505092915050565b5f60015f8473ffffffffffffffffffffffffffffffffffffffff1673ffffffffffffffffffffffffffffffffffffffff1681526020019081526020015f205f8373ffffffffffffffffffffffffffffffffffffffff1673ffffffffffffffffffffffffffffffffffffffff1681526020019081526020015f2054905092915050565b5f33905090565b6104b083838360016106b7565b505050565b5f6104c0848461041a565b90507fffffffffffffffffffffffffffffffffffffffffffffffffffffffffffffffff8110156105425781811015610533578281836040517ffb8f41b200000000000000000000000000000000000000000000000000000000815260040161052a93929190610db2565b60405180910390fd5b61054184848484035f6106b7565b5b50505050565b5f73ffffffffffffffffffffffffffffffffffffffff168373ffffffffffffffffffffffffffffffffffffffff16036105b8575f6040517f96c6fd1e0000000000000000000000000000000000000000000000000000000081526004016105af9190610de7565b60405180910390fd5b5f73ffffffffffffffffffffffffffffffffffffffff168273ffffffffffffffffffffffffffffffffffffffff1603610628575f6040517fec442f0500000000000000000000000000000000000000000000000000000000815260040161061f9190610de7565b60405180910390fd5b610633838383610886565b505050565b5f73ffffffffffffffffffffffffffffffffffffffff168273ffffffffffffffffffffffffffffffffffffffff16036106a8575f6040517fec442f0500000000000000000000000000000000000000000000000000000000815260040161069f9190610de7565b60405180910390fd5b6106b35f8383610886565b5050565b5f73ffffffffffffffffffffffffffffffffffffffff168473ffffffffffffffffffffffffffffffffffffffff1603610727575f6040517fe602df0500000000000000000000000000000000000000000000000000000000815260040161071e9190610de7565b60405180910390fd5b5f73ffffffffffffffffffffffffffffffffffffffff168373ffffffffffffffffffffffffffffffffffffffff1603610797575f6040517f94280d6200000000000000000000000000000000000000000000000000000000815260040161078e9190610de7565b60405180910390fd5b8160015f8673ffffffffffffffffffffffffffffffffffffffff1673ffffffffffffffffffffffffffffffffffffffff1681526020019081526020015f205f8573ffffffffffffffffffffffffffffffffffffffff1673ffffffffffffffffffffffffffffffffffffffff1681526020019081526020015f20819055508015610880578273ffffffffffffffffffffffffffffffffffffffff168473ffffffffffffffffffffffffffffffffffffffff167f8c5be1e5ebec7d5bd14f71427d1e84f3dd0314c0f7b2291e5b200ac8c7c3b925846040516108779190610c40565b60405180910390a35b50505050565b5f73ffffffffffffffffffffffffffffffffffffffff168373ffffffffffffffffffffffffffffffffffffffff16036108d6578060025f8282546108ca9190610e2d565b925050819055506109a4565b5f5f5f8573ffffffffffffffffffffffffffffffffffffffff1673ffffffffffffffffffffffffffffffffffffffff1681526020019081526020015f205490508181101561095f578381836040517fe450d38c00000000000000000000000000000000000000000000000000000000815260040161095693929190610db2565b60405180910390fd5b8181035f5f8673ffffffffffffffffffffffffffffffffffffffff1673ffffffffffffffffffffffffffffffffffffffff1681526020019081526020015f2081905550505b5f73ffffffffffffffffffffffffffffffffffffffff168273ffffffffffffffffffffffffffffffffffffffff16036109eb578060025f8282540392505081905550610a35565b805f5f8473ffffffffffffffffffffffffffffffffffffffff1673ffffffffffffffffffffffffffffffffffffffff1681526020019081526020015f205f82825401925050819055505b8173ffffffffffffffffffffffffffffffffffffffff168373ffffffffffffffffffffffffffffffffffffffff167fddf252ad1be2c89b69c2b068fc378daa952ba7f163c4a11628f55a4df523b3ef83604051610a929190610c40565b60405180910390a3505050565b5f81519050919050565b5f82825260208201905092915050565b8281835e5f83830152505050565b5f601f19601f8301169050919050565b5f610ae182610a9f565b610aeb8185610aa9565b9350610afb818560208601610ab9565b610b0481610ac7565b840191505092915050565b5f6020820190508181035f830152610b278184610ad7565b905092915050565b5f5ffd5b5f73ffffffffffffffffffffffffffffffffffffffff82169050919050565b5f610b5c82610b33565b9050919050565b610b6c81610b52565b8114610b76575f5ffd5b50565b5f81359050610b8781610b63565b92915050565b5f819050919050565b610b9f81610b8d565b8114610ba9575f5ffd5b50565b5f81359050610bba81610b96565b92915050565b5f5f60408385031215610bd657610bd5610b2f565b5b5f610be385828601610b79565b9250506020610bf485828601610bac565b9150509250929050565b5f8115159050919050565b610c1281610bfe565b82525050565b5f602082019050610c2b5f830184610c09565b92915050565b610c3a81610b8d565b82525050565b5f602082019050610c535f830184610c31565b92915050565b5f5f5f60608486031215610c7057610c6f610b2f565b5b5f610c7d86828701610b79565b9350506020610c8e86828701610b79565b9250506040610c9f86828701610bac565b9150509250925092565b5f60ff82169050919050565b610cbe81610ca9565b82525050565b5f602082019050610cd75f830184610cb5565b92915050565b5f60208284031215610cf257610cf1610b2f565b5b5f610cff84828501610b79565b91505092915050565b5f5f60408385031215610d1e57610d1d610b2f565b5b5f610d2b85828601610b79565b9250506020610d3c85828601610b79565b9150509250929050565b7f4e487b71000000000000000000000000000000000000000000000000000000005f52602260045260245ffd5b5f6002820490506001821680610d8a57607f821691505b602082108103610d9d57610d9c610d46565b5b50919050565b610dac81610b52565b82525050565b5f606082019050610dc55f830186610da3565b610dd26020830185610c31565b610ddf6040830184610c31565b949350505050565b5f602082019050610dfa5f830184610da3565b92915050565b7f4e487b71000000000000000000000000000000000000000000000000000000005f52601160045260245ffd5b5f610e3782610b8d565b9150610e4283610b8d565b9250828201905080821115610e5a57610e59610e00565b5b9291505056fea2646970667358221220453535d1b009006473e6851db1db48aa39bf64b32d37417c4a1336623b541a1b64736f6c63430008210033",
        "nonce": "0x8",
        "chainId": "0x72"
      },
      "additionalContracts": [],
      "isFixedGasLimit": false
    },
    {
      "hash": "0x3fe5fa86e5c835bff0f89aa939412c70c01875993ec93cf42180407fabcaab30",
      "transactionType": "CREATE",
      "contractName": "Pool",
      "contractAddress": "0xa6c3a21bff7379570578c40c1ff1f059c29762a2",
      "function": null,
      "arguments": [
        "0x88A84517fB7487720742F5dFa74F3C7214ac7Da1"
      ],
      "transaction": {
        "from": "0xe96c20b1ad77ef2f8ebdaebb2e8e287629e5f671",
        "gas": "0x1163c6",
        "value": "0x0",
        "input": "0x60a060405234801561000f575f5ffd5b50604051611002380380611002833981810160405281019061003191906100c9565b8073ffffffffffffffffffffffffffffffffffffffff1660808173ffffffffffffffffffffffffffffffffffffffff1681525050506100f4565b5f5ffd5b5f73ffffffffffffffffffffffffffffffffffffffff82169050919050565b5f6100988261006f565b9050919050565b6100a88161008e565b81146100b2575f5ffd5b50565b5f815190506100c38161009f565b92915050565b5f602082840312156100de576100dd61006b565b5b5f6100eb848285016100b5565b91505092915050565b608051610ee16101215f395f81816102bf015281816102e3015281816103ff01526105300152610ee15ff3fe6080604052600436106100aa575f3560e01c8063729248001161006357806372924800146101af57806390a5dbde146101d7578063b5008f6c146101ff578063b8cec1c914610209578063ccff8ea114610245578063d547da0d14610281576100b1565b806322be3de1146100b55780632333871e146100df57806336718bff146101075780634695b3b91461014357806349ea462d1461016b5780635767ec7614610193576100b1565b366100b157005b5f5ffd5b3480156100c0575f5ffd5b506100c96102bd565b6040516100d691906108b8565b60405180910390f35b3480156100ea575f5ffd5b506101056004803603810190610100919061093b565b6102e1565b005b348015610112575f5ffd5b5061012d600480360381019061012891906109a3565b6103e8565b60405161013a91906109dd565b60405180910390f35b34801561014e575f5ffd5b50610169600480360381019061016491906109f6565b6103fd565b005b348015610176575f5ffd5b50610191600480360381019061018c9190610a21565b61052e565b005b6101ad60048036038101906101a89190610a5f565b61060c565b005b3480156101ba575f5ffd5b506101d560048036038101906101d0919061093b565b610678565b005b3480156101e2575f5ffd5b506101fd60048036038101906101f89190610ac5565b6106f7565b005b6102076107a4565b005b348015610214575f5ffd5b5061022f600480360381019061022a9190610a5f565b61083b565b60405161023c91906109dd565b60405180910390f35b348015610250575f5ffd5b5061026b60048036038101906102669190610a5f565b610850565b60405161027891906109dd565b60405180910390f35b34801561028c575f5ffd5b506102a760048036038101906102a291906109a3565b610865565b6040516102b491906109dd565b60405180910390f35b7f000000000000000000000000000000000000000000000000000000000000000081565b7f000000000000000000000000000000000000000000000000000000000000000073ffffffffffffffffffffffffffffffffffffffff166323b872dd3330846040518463ffffffff1660e01b815260040161033e93929190610b03565b6020604051808303815f875af115801561035a573d5f5f3e3d5ffd5b505050506040513d601f19601f8201168201806040525081019061037e9190610b6d565b6103bd576040517f08c379a00000000000000000000000000000000000000000000000000000000081526004016103b490610bf2565b60405180910390fd5b8060025f8481526020019081526020015f205f8282546103dd9190610c3d565b925050819055505050565b6001602052805f5260405f205f915090505481565b7f000000000000000000000000000000000000000000000000000000000000000073ffffffffffffffffffffffffffffffffffffffff166323b872dd3330846040518463ffffffff1660e01b815260040161045a93929190610b03565b6020604051808303815f875af1158015610476573d5f5f3e3d5ffd5b505050506040513d601f19601f8201168201806040525081019061049a9190610b6d565b6104d9576040517f08c379a00000000000000000000000000000000000000000000000000000000081526004016104d090610bf2565b60405180910390fd5b805f5f3373ffffffffffffffffffffffffffffffffffffffff1673ffffffffffffffffffffffffffffffffffffffff1681526020019081526020015f205f8282546105249190610c3d565b9250508190555050565b7f000000000000000000000000000000000000000000000000000000000000000073ffffffffffffffffffffffffffffffffffffffff1663a9059cbb83836040518363ffffffff1660e01b8152600401610589929190610c70565b6020604051808303815f875af11580156105a5573d5f5f3e3d5ffd5b505050506040513d601f19601f820116820180604052508101906105c99190610b6d565b610608576040517f08c379a00000000000000000000000000000000000000000000000000000000081526004016105ff90610ce1565b60405180910390fd5b5050565b5f341161064e576040517f08c379a000000000000000000000000000000000000000000000000000000000815260040161064590610d49565b60405180910390fd5b3460035f8381526020019081526020015f205f82825461066e9190610c3d565b9250508190555050565b8060025f8481526020019081526020015f205410156106cc576040517f08c379a00000000000000000000000000000000000000000000000000000000081526004016106c390610db1565b60405180910390fd5b8060025f8481526020019081526020015f205f8282546106ec9190610dcf565b925050819055505050565b5f8273ffffffffffffffffffffffffffffffffffffffff168260405161071c90610e2f565b5f6040518083038185875af1925050503d805f8114610756576040519150601f19603f3d011682016040523d82523d5f602084013e61075b565b606091505b505090508061079f576040517f08c379a000000000000000000000000000000000000000000000000000000000815260040161079690610e8d565b60405180910390fd5b505050565b5f34116107e6576040517f08c379a00000000000000000000000000000000000000000000000000000000081526004016107dd90610d49565b60405180910390fd5b3460015f3373ffffffffffffffffffffffffffffffffffffffff1673ffffffffffffffffffffffffffffffffffffffff1681526020019081526020015f205f8282546108329190610c3d565b92505081905550565b6002602052805f5260405f205f915090505481565b6003602052805f5260405f205f915090505481565b5f602052805f5260405f205f915090505481565b5f73ffffffffffffffffffffffffffffffffffffffff82169050919050565b5f6108a282610879565b9050919050565b6108b281610898565b82525050565b5f6020820190506108cb5f8301846108a9565b92915050565b5f5ffd5b5f819050919050565b6108e7816108d5565b81146108f1575f5ffd5b50565b5f81359050610902816108de565b92915050565b5f819050919050565b61091a81610908565b8114610924575f5ffd5b50565b5f8135905061093581610911565b92915050565b5f5f60408385031215610951576109506108d1565b5b5f61095e858286016108f4565b925050602061096f85828601610927565b9150509250929050565b61098281610898565b811461098c575f5ffd5b50565b5f8135905061099d81610979565b92915050565b5f602082840312156109b8576109b76108d1565b5b5f6109c58482850161098f565b91505092915050565b6109d781610908565b82525050565b5f6020820190506109f05f8301846109ce565b92915050565b5f60208284031215610a0b57610a0a6108d1565b5b5f610a1884828501610927565b91505092915050565b5f5f60408385031215610a3757610a366108d1565b5b5f610a448582860161098f565b9250506020610a5585828601610927565b9150509250929050565b5f60208284031215610a7457610a736108d1565b5b5f610a81848285016108f4565b91505092915050565b5f610a9482610879565b9050919050565b610aa481610a8a565b8114610aae575f5ffd5b50565b5f81359050610abf81610a9b565b92915050565b5f5f60408385031215610adb57610ada6108d1565b5b5f610ae885828601610ab1565b9250506020610af985828601610927565b9150509250929050565b5f606082019050610b165f8301866108a9565b610b2360208301856108a9565b610b3060408301846109ce565b949350505050565b5f8115159050919050565b610b4c81610b38565b8114610b56575f5ffd5b50565b5f81519050610b6781610b43565b92915050565b5f60208284031215610b8257610b816108d1565b5b5f610b8f84828501610b59565b91505092915050565b5f82825260208201905092915050565b7f7472616e73666572206661696c656400000000000000000000000000000000005f82015250565b5f610bdc600f83610b98565b9150610be782610ba8565b602082019050919050565b5f6020820190508181035f830152610c0981610bd0565b9050919050565b7f4e487b71000000000000000000000000000000000000000000000000000000005f52601160045260245ffd5b5f610c4782610908565b9150610c5283610908565b9250828201905080821115610c6a57610c69610c10565b5b92915050565b5f604082019050610c835f8301856108a9565b610c9060208301846109ce565b9392505050565b7f737461626c65207061796f7574206661696c65640000000000000000000000005f82015250565b5f610ccb601483610b98565b9150610cd682610c97565b602082019050919050565b5f6020820190508181035f830152610cf881610cbf565b9050919050565b7f6e6f20464c5200000000000000000000000000000000000000000000000000005f82015250565b5f610d33600683610b98565b9150610d3e82610cff565b602082019050919050565b5f6020820190508181035f830152610d6081610d27565b9050919050565b7f696e73756666696369656e742070756220737461626c652062756666657200005f82015250565b5f610d9b601e83610b98565b9150610da682610d67565b602082019050919050565b5f6020820190508181035f830152610dc881610d8f565b9050919050565b5f610dd982610908565b9150610de483610908565b9250828203905081811115610dfc57610dfb610c10565b5b92915050565b5f81905092915050565b50565b5f610e1a5f83610e02565b9150610e2582610e0c565b5f82019050919050565b5f610e3982610e0f565b9150819050919050565b7f666c72207061796f7574206661696c65640000000000000000000000000000005f82015250565b5f610e77601183610b98565b9150610e8282610e43565b602082019050919050565b5f6020820190508181035f830152610ea481610e6b565b905091905056fea26469706673582212207b08b5f973d47ee9b4cf715e70bd393b737c676b56f67344f3ee8f528910811e64736f6c6343000821003300000000000000000000000088a84517fb7487720742f5dfa74f3c7214ac7da1",
        "nonce": "0x9",
        "chainId": "0x72"
      },
      "additionalContracts": [],
      "isFixedGasLimit": false
    },
    {
      "hash": "0x227a92e7a1be149e74f9804cd43a7d5bcddc8a635b9f47bc34a04730546905c3",
      "transactionType": "CREATE",
      "contractName": "PubRegistry",
      "contractAddress": "0x47154b0b7f33c97459e8ecca127bd0870c2c3d74",
      "function": null,
      "arguments": null,
      "transaction": {
        "from": "0xe96c20b1ad77ef2f8ebdaebb2e8e287629e5f671",
        "gas": "0x86eef",
        "value": "0x0",
        "input": "0x6080604052348015600e575f5ffd5b506106bd8061001c5f395ff3fe608060405234801561000f575f5ffd5b506004361061003f575f3560e01c8063a56be5e414610043578063a96265c014610073578063f8fe269d1461008f575b5f5ffd5b61005d60048036038101906100589190610462565b6100ab565b60405161006a9190610526565b60405180910390f35b61008d60048036038101906100889190610569565b610199565b005b6100a960048036038101906100a49190610569565b6102d4565b005b6100b36103df565b5f5f8381526020019081526020015f206040518060600160405290815f82015f9054906101000a900473ffffffffffffffffffffffffffffffffffffffff1673ffffffffffffffffffffffffffffffffffffffff1673ffffffffffffffffffffffffffffffffffffffff168152602001600182015f9054906101000a900473ffffffffffffffffffffffffffffffffffffffff1673ffffffffffffffffffffffffffffffffffffffff1673ffffffffffffffffffffffffffffffffffffffff1681526020016001820160149054906101000a900460ff1615151515815250509050919050565b5f5f5f8481526020019081526020015f2090508060010160149054906101000a900460ff166101fd576040517f08c379a00000000000000000000000000000000000000000000000000000000081526004016101f490610601565b60405180910390fd5b805f015f9054906101000a900473ffffffffffffffffffffffffffffffffffffffff1673ffffffffffffffffffffffffffffffffffffffff163373ffffffffffffffffffffffffffffffffffffffff161461028d576040517f08c379a000000000000000000000000000000000000000000000000000000000815260040161028490610669565b60405180910390fd5b81816001015f6101000a81548173ffffffffffffffffffffffffffffffffffffffff021916908373ffffffffffffffffffffffffffffffffffffffff160217905550505050565b60405180606001604052808273ffffffffffffffffffffffffffffffffffffffff1681526020015f73ffffffffffffffffffffffffffffffffffffffff168152602001600115158152505f5f8481526020019081526020015f205f820151815f015f6101000a81548173ffffffffffffffffffffffffffffffffffffffff021916908373ffffffffffffffffffffffffffffffffffffffff1602179055506020820151816001015f6101000a81548173ffffffffffffffffffffffffffffffffffffffff021916908373ffffffffffffffffffffffffffffffffffffffff16021790555060408201518160010160146101000a81548160ff0219169083151502179055509050505050565b60405180606001604052805f73ffffffffffffffffffffffffffffffffffffffff1681526020015f73ffffffffffffffffffffffffffffffffffffffff1681526020015f151581525090565b5f5ffd5b5f819050919050565b6104418161042f565b811461044b575f5ffd5b50565b5f8135905061045c81610438565b92915050565b5f602082840312156104775761047661042b565b5b5f6104848482850161044e565b91505092915050565b5f73ffffffffffffffffffffffffffffffffffffffff82169050919050565b5f6104b68261048d565b9050919050565b6104c6816104ac565b82525050565b5f8115159050919050565b6104e0816104cc565b82525050565b606082015f8201516104fa5f8501826104bd565b50602082015161050d60208501826104bd565b50604082015161052060408501826104d7565b50505050565b5f6060820190506105395f8301846104e6565b92915050565b610548816104ac565b8114610552575f5ffd5b50565b5f813590506105638161053f565b92915050565b5f5f6040838503121561057f5761057e61042b565b5b5f61058c8582860161044e565b925050602061059d85828601610555565b9150509250929050565b5f82825260208201905092915050565b7f707562206e6f74207265676973746572656400000000000000000000000000005f82015250565b5f6105eb6012836105a7565b91506105f6826105b7565b602082019050919050565b5f6020820190508181035f830152610618816105df565b9050919050565b7f6e6f74207075622077616c6c65740000000000000000000000000000000000005f82015250565b5f610653600e836105a7565b915061065e8261061f565b602082019050919050565b5f6020820190508181035f83015261068081610647565b905091905056fea2646970667358221220cca7bb2c52a0e48403281e718d854d7e74f2e0ceae70a7f61ec7eb67c4d3f43864736f6c63430008210033",
        "nonce": "0xa",
        "chainId": "0x72"
      },
      "additionalContracts": [],
      "isFixedGasLimit": false
    },
    {
      "hash": "0x23214a331c285f2a3dcd825c0c9698de54997e042a4006684a9274917633b224",
      "transactionType": "CREATE",
      "contractName": "SettlementEngine",
      "contractAddress": "0x7696c584851320421e89398f786a383ec01d9148",
      "function": null,
      "arguments": [
        "0xA6C3A21BfF7379570578c40c1ff1f059C29762a2",
        "0x47154B0b7F33c97459e8eccA127Bd0870c2c3d74"
      ],
      "transaction": {
        "from": "0xe96c20b1ad77ef2f8ebdaebb2e8e287629e5f671",
        "gas": "0x1031e4",
        "value": "0x0",
        "input": "0x60c0604052674563918244f4000060015567016345785d8a0000600255348015610027575f5ffd5b50604051610eb7380380610eb783398181016040528101906100499190610151565b8173ffffffffffffffffffffffffffffffffffffffff1660808173ffffffffffffffffffffffffffffffffffffffff16815250508073ffffffffffffffffffffffffffffffffffffffff1660a08173ffffffffffffffffffffffffffffffffffffffff1681525050505061018f565b5f5ffd5b5f73ffffffffffffffffffffffffffffffffffffffff82169050919050565b5f6100e5826100bc565b9050919050565b6100f5816100db565b81146100ff575f5ffd5b50565b5f81519050610110816100ec565b92915050565b5f610120826100bc565b9050919050565b61013081610116565b811461013a575f5ffd5b50565b5f8151905061014b81610127565b92915050565b5f5f60408385031215610167576101666100b8565b5b5f61017485828601610102565b92505060206101858582860161013d565b9150509250929050565b60805160a051610ceb6101cc5f395f8181610305015261058e01525f81816101300152818161027c015281816103e701526104b70152610ceb5ff3fe608060405234801561000f575f5ffd5b5060043610610060575f3560e01c80630102a0c01461006457806316f0115b146100825780633daef73e146100a05780637b103999146100bc578063b94f5351146100da578063c3f4b8d91461010a575b5f5ffd5b61006c610128565b60405161007991906105f7565b60405180910390f35b61008a61012e565b604051610097919061068a565b60405180910390f35b6100ba60048036038101906100b5919061070d565b610152565b005b6100c461058c565b6040516100d1919061078e565b60405180910390f35b6100f460048036038101906100ef91906107a7565b6105b0565b60405161010191906107ff565b60405180910390f35b6101126105d9565b60405161011f91906105f7565b60405180910390f35b60025481565b7f000000000000000000000000000000000000000000000000000000000000000081565b5f5f8481526020019081526020015f205f8381526020019081526020015f205f9054906101000a900460ff16156101be576040517f08c379a00000000000000000000000000000000000000000000000000000000081526004016101b590610872565b60405180910390fd5b6064811115610202576040517f08c379a00000000000000000000000000000000000000000000000000000000081526004016101f9906108da565b60405180910390fd5b60015f5f8581526020019081526020015f205f8481526020019081526020015f205f6101000a81548160ff0219169083151502179055505f8160646102479190610925565b6002546102549190610958565b6001546102619190610999565b90505f6702c68af0bb140000836102789190610958565b90507f000000000000000000000000000000000000000000000000000000000000000073ffffffffffffffffffffffffffffffffffffffff16637292480086846040518363ffffffff1660e01b81526004016102d59291906109db565b5f604051808303815f87803b1580156102ec575f5ffd5b505af11580156102fe573d5f5f3e3d5ffd5b505050505f7f000000000000000000000000000000000000000000000000000000000000000073ffffffffffffffffffffffffffffffffffffffff1663a56be5e4876040518263ffffffff1660e01b815260040161035c9190610a02565b606060405180830381865afa158015610377573d5f5f3e3d5ffd5b505050506040513d601f19601f8201168201806040525081019061039b9190610b6d565b90505f73ffffffffffffffffffffffffffffffffffffffff16816020015173ffffffffffffffffffffffffffffffffffffffff16036104b5575f6103e8836103e39190610bc5565b90507f000000000000000000000000000000000000000000000000000000000000000073ffffffffffffffffffffffffffffffffffffffff166390a5dbde835f0151836040518363ffffffff1660e01b8152600401610443929190610c15565b5f604051808303815f87803b15801561045a575f5ffd5b505af115801561046c573d5f5f3e3d5ffd5b5050505085877f05ce00ce840b224446cd8e251dd05a7324b27ce087eae5ca871478726f83beab8787855f6040516104a79493929190610c4b565b60405180910390a350610584565b7f000000000000000000000000000000000000000000000000000000000000000073ffffffffffffffffffffffffffffffffffffffff166349ea462d825f0151846040518363ffffffff1660e01b8152600401610513929190610c8e565b5f604051808303815f87803b15801561052a575f5ffd5b505af115801561053c573d5f5f3e3d5ffd5b5050505084867f05ce00ce840b224446cd8e251dd05a7324b27ce087eae5ca871478726f83beab868686866020015160405161057b9493929190610c4b565b60405180910390a35b505050505050565b7f000000000000000000000000000000000000000000000000000000000000000081565b5f602052815f5260405f20602052805f5260405f205f915091509054906101000a900460ff1681565b60015481565b5f819050919050565b6105f1816105df565b82525050565b5f60208201905061060a5f8301846105e8565b92915050565b5f73ffffffffffffffffffffffffffffffffffffffff82169050919050565b5f819050919050565b5f61065261064d61064884610610565b61062f565b610610565b9050919050565b5f61066382610638565b9050919050565b5f61067482610659565b9050919050565b6106848161066a565b82525050565b5f60208201905061069d5f83018461067b565b92915050565b5f604051905090565b5f5ffd5b5f819050919050565b6106c2816106b0565b81146106cc575f5ffd5b50565b5f813590506106dd816106b9565b92915050565b6106ec816105df565b81146106f6575f5ffd5b50565b5f81359050610707816106e3565b92915050565b5f5f5f60608486031215610724576107236106ac565b5b5f610731868287016106cf565b9350506020610742868287016106cf565b9250506040610753868287016106f9565b9150509250925092565b5f61076782610638565b9050919050565b5f6107788261075d565b9050919050565b6107888161076e565b82525050565b5f6020820190506107a15f83018461077f565b92915050565b5f5f604083850312156107bd576107bc6106ac565b5b5f6107ca858286016106cf565b92505060206107db858286016106cf565b9150509250929050565b5f8115159050919050565b6107f9816107e5565b82525050565b5f6020820190506108125f8301846107f0565b92915050565b5f82825260208201905092915050565b7f616c726561647920736574746c656400000000000000000000000000000000005f82015250565b5f61085c600f83610818565b915061086782610828565b602082019050919050565b5f6020820190508181035f83015261088981610850565b9050919050565b7f73636f7265206f7574206f662072616e676500000000000000000000000000005f82015250565b5f6108c4601283610818565b91506108cf82610890565b602082019050919050565b5f6020820190508181035f8301526108f1816108b8565b9050919050565b7f4e487b71000000000000000000000000000000000000000000000000000000005f52601160045260245ffd5b5f61092f826105df565b915061093a836105df565b9250828203905081811115610952576109516108f8565b5b92915050565b5f610962826105df565b915061096d836105df565b925082820261097b816105df565b91508282048414831517610992576109916108f8565b5b5092915050565b5f6109a3826105df565b91506109ae836105df565b92508282019050808211156109c6576109c56108f8565b5b92915050565b6109d5816106b0565b82525050565b5f6040820190506109ee5f8301856109cc565b6109fb60208301846105e8565b9392505050565b5f602082019050610a155f8301846109cc565b92915050565b5f5ffd5b5f601f19601f8301169050919050565b7f4e487b71000000000000000000000000000000000000000000000000000000005f52604160045260245ffd5b610a6582610a1f565b810181811067ffffffffffffffff82111715610a8457610a83610a2f565b5b80604052505050565b5f610a966106a3565b9050610aa28282610a5c565b919050565b5f610ab182610610565b9050919050565b610ac181610aa7565b8114610acb575f5ffd5b50565b5f81519050610adc81610ab8565b92915050565b610aeb816107e5565b8114610af5575f5ffd5b50565b5f81519050610b0681610ae2565b92915050565b5f60608284031215610b2157610b20610a1b565b5b610b2b6060610a8d565b90505f610b3a84828501610ace565b5f830152506020610b4d84828501610ace565b6020830152506040610b6184828501610af8565b60408301525092915050565b5f60608284031215610b8257610b816106ac565b5b5f610b8f84828501610b0c565b91505092915050565b7f4e487b71000000000000000000000000000000000000000000000000000000005f52601260045260245ffd5b5f610bcf826105df565b9150610bda836105df565b925082610bea57610be9610b98565b5b828204905092915050565b5f610bff82610610565b9050919050565b610c0f81610bf5565b82525050565b5f604082019050610c285f830185610c06565b610c3560208301846105e8565b9392505050565b610c4581610aa7565b82525050565b5f608082019050610c5e5f8301876105e8565b610c6b60208301866105e8565b610c7860408301856105e8565b610c856060830184610c3c565b95945050505050565b5f604082019050610ca15f830185610c3c565b610cae60208301846105e8565b939250505056fea264697066735822122049478c0a96ab32bbc4bde5bc870b3905228e0c21b73c3172e7b7b941225fb50e64736f6c63430008210033000000000000000000000000a6c3a21bff7379570578c40c1ff1f059c29762a200000000000000000000000047154b0b7f33c97459e8ecca127bd0870c2c3d74",
        "nonce": "0xb",
        "chainId": "0x72"
      },
      "additionalContracts": [],
      "isFixedGasLimit": false
    },
    {
      "hash": "0xd7424157d7f267ae6bf7fcdd67788cbaf2d07a76d155fd814b6db62396e4d8d6",
      "transactionType": "CALL",
      "contractName": "PubRegistry",
      "contractAddress": "0x47154b0b7f33c97459e8ecca127bd0870c2c3d74",
      "function": "registerPub(bytes32,address)",
      "arguments": [
        "0x398d826052cc107050228a98308c34680aa0dce7d605593f6f73182fe2804534",
        "0xe96c20B1Ad77Ef2f8EbDAeBb2e8e287629e5f671"
      ],
      "transaction": {
        "from": "0xe96c20b1ad77ef2f8ebdaebb2e8e287629e5f671",
        "to": "0x47154b0b7f33c97459e8ecca127bd0870c2c3d74",
        "gas": "0x16bf5",
        "value": "0x0",
        "input": "0xf8fe269d398d826052cc107050228a98308c34680aa0dce7d605593f6f73182fe2804534000000000000000000000000e96c20b1ad77ef2f8ebdaebb2e8e287629e5f671",
        "nonce": "0xc",
        "chainId": "0x72"
      },
      "additionalContracts": [],
      "isFixedGasLimit": false
    },
    {
      "hash": "0x776d4f60f4442e39c3dd58a090c9e4ffaea85a4a0e5afedf634ef025929e2705",
      "transactionType": "CALL",
      "contractName": "MockUSD",
      "contractAddress": "0x88a84517fb7487720742f5dfa74f3c7214ac7da1",
      "function": "mint(address,uint256)",
      "arguments": [
        "0xe96c20B1Ad77Ef2f8EbDAeBb2e8e287629e5f671",
        "1000000000000000000000"
      ],
      "transaction": {
        "from": "0xe96c20b1ad77ef2f8ebdaebb2e8e287629e5f671",
        "to": "0x88a84517fb7487720742f5dfa74f3c7214ac7da1",
        "gas": "0x173ef",
        "value": "0x0",
        "input": "0x40c10f19000000000000000000000000e96c20b1ad77ef2f8ebdaebb2e8e287629e5f67100000000000000000000000000000000000000000000003635c9adc5dea00000",
        "nonce": "0xd",
        "chainId": "0x72"
      },
      "additionalContracts": [],
      "isFixedGasLimit": false
    },
    {
      "hash": "0xcc08e78265453a5825c70103aad4aecaa925a3b30e72ceb197a00c836de3b7bf",
      "transactionType": "CALL",
      "contractName": "MockUSD",
      "contractAddress": "0x88a84517fb7487720742f5dfa74f3c7214ac7da1",
      "function": "approve(address,uint256)",
      "arguments": [
        "0xA6C3A21BfF7379570578c40c1ff1f059C29762a2",
        "115792089237316195423570985008687907853269984665640564039457584007913129639935"
      ],
      "transaction": {
        "from": "0xe96c20b1ad77ef2f8ebdaebb2e8e287629e5f671",
        "to": "0x88a84517fb7487720742f5dfa74f3c7214ac7da1",
        "gas": "0xfee1",
        "value": "0x0",
        "input": "0x095ea7b3000000000000000000000000a6c3a21bff7379570578c40c1ff1f059c29762a2ffffffffffffffffffffffffffffffffffffffffffffffffffffffffffffffff",
        "nonce": "0xe",
        "chainId": "0x72"
      },
      "additionalContracts": [],
      "isFixedGasLimit": false
    },
    {
      "hash": "0xc16aa43086028e964f19416a86bcff63a1a182690ef41ae9418395a216a39309",
      "transactionType": "CALL",
      "contractName": "Pool",
      "contractAddress": "0xa6c3a21bff7379570578c40c1ff1f059c29762a2",
      "function": "prefundStablePub(bytes32,uint256)",
      "arguments": [
        "0x398d826052cc107050228a98308c34680aa0dce7d605593f6f73182fe2804534",
        "200000000000000000000"
      ],
      "transaction": {
        "from": "0xe96c20b1ad77ef2f8ebdaebb2e8e287629e5f671",
        "to": "0xa6c3a21bff7379570578c40c1ff1f059c29762a2",
        "gas": "0x1b72e",
        "value": "0x0",
        "input": "0x2333871e398d826052cc107050228a98308c34680aa0dce7d605593f6f73182fe280453400000000000000000000000000000000000000000000000ad78ebc5ac6200000",
        "nonce": "0xf",
        "chainId": "0x72"
      },
      "additionalContracts": [],
      "isFixedGasLimit": false
    },
    {
      "hash": "0x937ed6b4d9afe0b86c63e3205ea96c38b5cc8aa32da88c87028be4ba8a8d6425",
      "transactionType": "CALL",
      "contractName": "PubRegistry",
      "contractAddress": "0x47154b0b7f33c97459e8ecca127bd0870c2c3d74",
      "function": "setPayoutToken(bytes32,address)",
      "arguments": [
        "0x398d826052cc107050228a98308c34680aa0dce7d605593f6f73182fe2804534",
        "0x0000000000000000000000000000000000000000"
      ],
      "transaction": {
        "from": "0xe96c20b1ad77ef2f8ebdaebb2e8e287629e5f671",
        "to": "0x47154b0b7f33c97459e8ecca127bd0870c2c3d74",
        "gas": "0x9a9e",
        "value": "0x0",
        "input": "0xa96265c0398d826052cc107050228a98308c34680aa0dce7d605593f6f73182fe28045340000000000000000000000000000000000000000000000000000000000000000",
        "nonce": "0x10",
        "chainId": "0x72"
      },
      "additionalContracts": [],
      "isFixedGasLimit": false
    },
    {
      "hash": "0xcfd493203b245c3eedc314756097b5a1f7568eb25226887537aafe4e7472a59a",
      "transactionType": "CALL",
      "contractName": null,
      "contractAddress": "0xa6c3a21bff7379570578c40c1ff1f059c29762a2",
      "function": null,
      "arguments": null,
      "transaction": {
        "from": "0xe96c20b1ad77ef2f8ebdaebb2e8e287629e5f671",
        "to": "0xa6c3a21bff7379570578c40c1ff1f059c29762a2",
        "gas": "0x7199",
        "value": "0x2c68af0bb140000",
        "input": "0x",
        "nonce": "0x11",
        "chainId": "0x72"
      },
      "additionalContracts": [],
      "isFixedGasLimit": false
    },
    {
      "hash": "0x2a061bbb736da9ff0f4bba6883457bc370a6c5fd9fc640c86641992d3ba5d557",
      "transactionType": "CALL",
      "contractName": "SettlementEngine",
      "contractAddress": "0x7696c584851320421e89398f786a383ec01d9148",
      "function": "settle(bytes32,bytes32,uint256)",
      "arguments": [
        "0x398d826052cc107050228a98308c34680aa0dce7d605593f6f73182fe2804534",
        "0x86d1e6ea5497f2ba88cbcace5c880f37673e76faafa24b9849166e52020bfc39",
        "40"
      ],
      "transaction": {
        "from": "0xe96c20b1ad77ef2f8ebdaebb2e8e287629e5f671",
        "to": "0x7696c584851320421e89398f786a383ec01d9148",
        "gas": "0x1b63c",
        "value": "0x0",
        "input": "0x3daef73e398d826052cc107050228a98308c34680aa0dce7d605593f6f73182fe280453486d1e6ea5497f2ba88cbcace5c880f37673e76faafa24b9849166e52020bfc390000000000000000000000000000000000000000000000000000000000000028",
        "nonce": "0x12",
        "chainId": "0x72"
      },
      "additionalContracts": [],
      "isFixedGasLimit": false
    }
  ],
  "receipts": [
    {
      "status": "0x1",
      "cumulativeGasUsed": "0xdfe65",
      "logs": [
        {
          "address": "0x1000000000000000000000000000000000000002",
          "topics": [
            "0xe7aa66356adbd5e839ef210626f6d8f6f72109c17fadf4c4f9ca82b315ae79b4"
          ],
          "data": "0x000000000000000000000000c738fdcde9cd2fbd72618d36ed71008b8d001ba4000000000000000000000000000000000000000000000000000000000000421a",
          "blockHash": "0xaad2ec66af8f0ca3de6b83e6b89bc9624acf23813f4fc50231c5237ad4f8a291",
          "blockNumber": "0x19bc7b9",
          "transactionHash": "0x607cc7bffeb8550709b508a427378f94ee160e929a8f1a48e531a54c95aa3ee5",
          "transactionIndex": "0x0",
          "logIndex": "0x0",
          "removed": false
        },
        {
          "address": "0x1000000000000000000000000000000000000002",
          "topics": [
            "0xe7aa66356adbd5e839ef210626f6d8f6f72109c17fadf4c4f9ca82b315ae79b4"
          ],
          "data": "0x000000000000000000000000d2a1bb23eb350814a30dd6f9de78bb2c8fdd9f1d0000000000000000000000000000000000000000000000000000000000004442",
          "blockHash": "0xaad2ec66af8f0ca3de6b83e6b89bc9624acf23813f4fc50231c5237ad4f8a291",
          "blockNumber": "0x19bc7b9",
          "transactionHash": "0x607cc7bffeb8550709b508a427378f94ee160e929a8f1a48e531a54c95aa3ee5",
          "transactionIndex": "0x0",
          "logIndex": "0x1",
          "removed": false
        },
        {
          "address": "0x1000000000000000000000000000000000000002",
          "topics": [
            "0xe7aa66356adbd5e839ef210626f6d8f6f72109c17fadf4c4f9ca82b315ae79b4"
          ],
          "data": "0x0000000000000000000000006892bdbbb14e1c9bd46bf31e7bac94d038fc82a6000000000000000000000000000000000000000000000000000000000000422d",
          "blockHash": "0xaad2ec66af8f0ca3de6b83e6b89bc9624acf23813f4fc50231c5237ad4f8a291",
          "blockNumber": "0x19bc7b9",
          "transactionHash": "0x607cc7bffeb8550709b508a427378f94ee160e929a8f1a48e531a54c95aa3ee5",
          "transactionIndex": "0x0",
          "logIndex": "0x2",
          "removed": false
        },
        {
          "address": "0x1000000000000000000000000000000000000002",
          "topics": [
            "0xe7aa66356adbd5e839ef210626f6d8f6f72109c17fadf4c4f9ca82b315ae79b4"
          ],
          "data": "0x000000000000000000000000bd33bdff04c357f7fc019e72d0504c24cf4aa0100000000000000000000000000000000000000000000000000000000000008688",
          "blockHash": "0xaad2ec66af8f0ca3de6b83e6b89bc9624acf23813f4fc50231c5237ad4f8a291",
          "blockNumber": "0x19bc7b9",
          "transactionHash": "0x607cc7bffeb8550709b508a427378f94ee160e929a8f1a48e531a54c95aa3ee5",
          "transactionIndex": "0x0",
          "logIndex": "0x3",
          "removed": false
        },
        {
          "address": "0x1000000000000000000000000000000000000002",
          "topics": [
            "0xe7aa66356adbd5e839ef210626f6d8f6f72109c17fadf4c4f9ca82b315ae79b4"
          ],
          "data": "0x000000000000000000000000a90db6d10f856799b10ef2a77ebcbf460ac71e5200000000000000000000000000000000000000000000000000000000000024f3",
          "blockHash": "0xaad2ec66af8f0ca3de6b83e6b89bc9624acf23813f4fc50231c5237ad4f8a291",
          "blockNumber": "0x19bc7b9",
          "transactionHash": "0x607cc7bffeb8550709b508a427378f94ee160e929a8f1a48e531a54c95aa3ee5",
          "transactionIndex": "0x0",
          "logIndex": "0x4",
          "removed": false
        },
        {
          "address": "0x1000000000000000000000000000000000000002",
          "topics": [
            "0xe7aa66356adbd5e839ef210626f6d8f6f72109c17fadf4c4f9ca82b315ae79b4"
          ],
          "data": "0x0000000000000000000000000b162ca3acf3482d3357972e12d794434085d83900000000000000000000000000000000000000000000000000000000000149d5",
          "blockHash": "0xaad2ec66af8f0ca3de6b83e6b89bc9624acf23813f4fc50231c5237ad4f8a291",
          "blockNumber": "0x19bc7b9",
          "transactionHash": "0x607cc7bffeb8550709b508a427378f94ee160e929a8f1a48e531a54c95aa3ee5",
          "transactionIndex": "0x0",
          "logIndex": "0x5",
          "removed": false
        }
      ],
      "logsBloom": "0x00020000000000000000000000000000000000000000000000000000000000000000000000000000000000000000000000000000000000000000000000000000000000000000000000400000000000000000000000000000000080000000000000000000000000000000000000000000000000000000000001000000000000000000000000000000000000000000000000000000000000000000000400000000080000000000000000000000000000000000000000000000000000000000000000000000000000000000000000000000000000000000000000000000000000000000000000000000000000000000000000000000000000000000000000000000",
      "type": "0x2",
      "transactionHash": "0x607cc7bffeb8550709b508a427378f94ee160e929a8f1a48e531a54c95aa3ee5",
      "transactionIndex": "0x0",
      "blockHash": "0xaad2ec66af8f0ca3de6b83e6b89bc9624acf23813f4fc50231c5237ad4f8a291",
      "blockNumber": "0x19bc7b9",
      "gasUsed": "0xdfe65",
      "effectiveGasPrice": "0xe8d4a5102",
      "from": "0xe96c20b1ad77ef2f8ebdaebb2e8e287629e5f671",
      "to": null,
      "contractAddress": "0x88a84517fb7487720742f5dfa74f3c7214ac7da1"
    },
    {
      "status": "0x1",
      "cumulativeGasUsed": "0xd6071",
      "logs": [
        {
          "address": "0x1000000000000000000000000000000000000002",
          "topics": [
            "0xe7aa66356adbd5e839ef210626f6d8f6f72109c17fadf4c4f9ca82b315ae79b4"
          ],
          "data": "0x000000000000000000000000c738fdcde9cd2fbd72618d36ed71008b8d001ba4000000000000000000000000000000000000000000000000000000000000421a",
          "blockHash": "0x10e71e92ece06c386d1ed819275d356fcd66aa9a121085dab781a1e21f194a6e",
          "blockNumber": "0x19bc7ba",
          "transactionHash": "0x227a92e7a1be149e74f9804cd43a7d5bcddc8a635b9f47bc34a04730546905c3",
          "transactionIndex": "0x0",
          "logIndex": "0x0",
          "removed": false
        },
        {
          "address": "0x1000000000000000000000000000000000000002",
          "topics": [
            "0xe7aa66356adbd5e839ef210626f6d8f6f72109c17fadf4c4f9ca82b315ae79b4"
          ],
          "data": "0x000000000000000000000000d2a1bb23eb350814a30dd6f9de78bb2c8fdd9f1d000000000000000000000000000000000000000000000000000000000000328e",
          "blockHash": "0x10e71e92ece06c386d1ed819275d356fcd66aa9a121085dab781a1e21f194a6e",
          "blockNumber": "0x19bc7ba",
          "transactionHash": "0x227a92e7a1be149e74f9804cd43a7d5bcddc8a635b9f47bc34a04730546905c3",
          "transactionIndex": "0x0",
          "logIndex": "0x1",
          "removed": false
        },
        {
          "address": "0x1000000000000000000000000000000000000002",
          "topics": [
            "0xe7aa66356adbd5e839ef210626f6d8f6f72109c17fadf4c4f9ca82b315ae79b4"
          ],
          "data": "0x0000000000000000000000006892bdbbb14e1c9bd46bf31e7bac94d038fc82a6000000000000000000000000000000000000000000000000000000000000422d",
          "blockHash": "0x10e71e92ece06c386d1ed819275d356fcd66aa9a121085dab781a1e21f194a6e",
          "blockNumber": "0x19bc7ba",
          "transactionHash": "0x227a92e7a1be149e74f9804cd43a7d5bcddc8a635b9f47bc34a04730546905c3",
          "transactionIndex": "0x0",
          "logIndex": "0x2",
          "removed": false
        },
        {
          "address": "0x1000000000000000000000000000000000000002",
          "topics": [
            "0xe7aa66356adbd5e839ef210626f6d8f6f72109c17fadf4c4f9ca82b315ae79b4"
          ],
          "data": "0x000000000000000000000000bd33bdff04c357f7fc019e72d0504c24cf4aa0100000000000000000000000000000000000000000000000000000000000008688",
          "blockHash": "0x10e71e92ece06c386d1ed819275d356fcd66aa9a121085dab781a1e21f194a6e",
          "blockNumber": "0x19bc7ba",
          "transactionHash": "0x227a92e7a1be149e74f9804cd43a7d5bcddc8a635b9f47bc34a04730546905c3",
          "transactionIndex": "0x0",
          "logIndex": "0x3",
          "removed": false
        },
        {
          "address": "0x1000000000000000000000000000000000000002",
          "topics": [
            "0xe7aa66356adbd5e839ef210626f6d8f6f72109c17fadf4c4f9ca82b315ae79b4"
          ],
          "data": "0x000000000000000000000000a90db6d10f856799b10ef2a77ebcbf460ac71e5200000000000000000000000000000000000000000000000000000000000024f3",
          "blockHash": "0x10e71e92ece06c386d1ed819275d356fcd66aa9a121085dab781a1e21f194a6e",
          "blockNumber": "0x19bc7ba",
          "transactionHash": "0x227a92e7a1be149e74f9804cd43a7d5bcddc8a635b9f47bc34a04730546905c3",
          "transactionIndex": "0x0",
          "logIndex": "0x4",
          "removed": false
        },
        {
          "address": "0x1000000000000000000000000000000000000002",
          "topics": [
            "0xe7aa66356adbd5e839ef210626f6d8f6f72109c17fadf4c4f9ca82b315ae79b4"
          ],
          "data": "0x0000000000000000000000000b162ca3acf3482d3357972e12d794434085d8390000000000000000000000000000000000000000000000000000000000012d53",
          "blockHash": "0x10e71e92ece06c386d1ed819275d356fcd66aa9a121085dab781a1e21f194a6e",
          "blockNumber": "0x19bc7ba",
          "transactionHash": "0x227a92e7a1be149e74f9804cd43a7d5bcddc8a635b9f47bc34a04730546905c3",
          "transactionIndex": "0x0",
          "logIndex": "0x5",
          "removed": false
        }
      ],
      "logsBloom": "0x00020000000000000000000000000000000000000000000000000000000000000000000000000000000000000000000000000000000000000000000000000000000000000000000000400000000000000000000000000000000080000000000000000000000000000000000000000000000000000000000001000000000000000000000000000000000000000000000000000000000000000000000400000000080000000000000000000000000000000000000000000000000000000000000000000000000000000000000000000000000000000000000000000000000000000000000000000000000000000000000000000000000000000000000000000000",
      "type": "0x2",
      "transactionHash": "0x227a92e7a1be149e74f9804cd43a7d5bcddc8a635b9f47bc34a04730546905c3",
      "transactionIndex": "0x0",
      "blockHash": "0x10e71e92ece06c386d1ed819275d356fcd66aa9a121085dab781a1e21f194a6e",
      "blockNumber": "0x19bc7ba",
      "gasUsed": "0xd6071",
      "effectiveGasPrice": "0xe8d4a5102",
      "from": "0xe96c20b1ad77ef2f8ebdaebb2e8e287629e5f671",
      "to": null,
      "contractAddress": "0xa6c3a21bff7379570578c40c1ff1f059c29762a2"
    },
    {
      "status": "0x1",
      "cumulativeGasUsed": "0x13dd29",
      "logs": [],
      "logsBloom": "0x00000000000000000000000000000000000000000000000000000000000000000000000000000000000000000000000000000000000000000000000000000000000000000000000000000000000000000000000000000000000000000000000000000000000000000000000000000000000000000000000000000000000000000000000000000000000000000000000000000000000000000000000000000000000000000000000000000000000000000000000000000000000000000000000000000000000000000000000000000000000000000000000000000000000000000000000000000000000000000000000000000000000000000000000000000000",
      "type": "0x2",
      "transactionHash": "0xcc08e78265453a5825c70103aad4aecaa925a3b30e72ceb197a00c836de3b7bf",
      "transactionIndex": "0x1",
      "blockHash": "0x10e71e92ece06c386d1ed819275d356fcd66aa9a121085dab781a1e21f194a6e",
      "blockNumber": "0x19bc7ba",
      "gasUsed": "0x67cb8",
      "effectiveGasPrice": "0xe8d4a5102",
      "from": "0xe96c20b1ad77ef2f8ebdaebb2e8e287629e5f671",
      "to": null,
      "contractAddress": "0x47154b0b7f33c97459e8ecca127bd0870c2c3d74"
    },
    {
      "status": "0x1",
      "cumulativeGasUsed": "0x20524f",
      "logs": [],
      "logsBloom": "0x00000000000000000000000000000000000000000000000000000000000000000000000000000000000000000000000000000000000000000000000000000000000000000000000000000000000000000000000000000000000000000000000000000000000000000000000000000000000000000000000000000000000000000000000000000000000000000000000000000000000000000000000000000000000000000000000000000000000000000000000000000000000000000000000000000000000000000000000000000000000000000000000000000000000000000000000000000000000000000000000000000000000000000000000000000000",
      "type": "0x2",
      "transactionHash": "0x23214a331c285f2a3dcd825c0c9698de54997e042a4006684a9274917633b224",
      "transactionIndex": "0x2",
      "blockHash": "0x10e71e92ece06c386d1ed819275d356fcd66aa9a121085dab781a1e21f194a6e",
      "blockNumber": "0x19bc7ba",
      "gasUsed": "0xc7526",
      "effectiveGasPrice": "0xe8d4a5102",
      "from": "0xe96c20b1ad77ef2f8ebdaebb2e8e287629e5f671",
      "to": null,
      "contractAddress": "0x7696c584851320421e89398f786a383ec01d9148"
    },
    {
      "status": "0x1",
      "cumulativeGasUsed": "0x2159cf",
      "logs": [],
      "logsBloom": "0x00000000000000000000000000000000000000000000000000000000000000000000000000000000000000000000000000000000000000000000000000000000000000000000000000000000000000000000000000000000000000000000000000000000000000000000000000000000000000000000000000000000000000000000000000000000000000000000000000000000000000000000000000000000000000000000000000000000000000000000000000000000000000000000000000000000000000000000000000000000000000000000000000000000000000000000000000000000000000000000000000000000000000000000000000000000",
      "type": "0x2",
      "transactionHash": "0xd7424157d7f267ae6bf7fcdd67788cbaf2d07a76d155fd814b6db62396e4d8d6",
      "transactionIndex": "0x3",
      "blockHash": "0x10e71e92ece06c386d1ed819275d356fcd66aa9a121085dab781a1e21f194a6e",
      "blockNumber": "0x19bc7ba",
      "gasUsed": "0x10780",
      "effectiveGasPrice": "0xe8d4a5102",
      "from": "0xe96c20b1ad77ef2f8ebdaebb2e8e287629e5f671",
      "to": "0x47154b0b7f33c97459e8ecca127bd0870c2c3d74",
      "contractAddress": null
    },
    {
      "status": "0x1",
      "cumulativeGasUsed": "0x226716",
      "logs": [
        {
          "address": "0x88a84517fb7487720742f5dfa74f3c7214ac7da1",
          "topics": [
            "0xddf252ad1be2c89b69c2b068fc378daa952ba7f163c4a11628f55a4df523b3ef",
            "0x0000000000000000000000000000000000000000000000000000000000000000",
            "0x000000000000000000000000e96c20b1ad77ef2f8ebdaebb2e8e287629e5f671"
          ],
          "data": "0x00000000000000000000000000000000000000000000003635c9adc5dea00000",
          "blockHash": "0x10e71e92ece06c386d1ed819275d356fcd66aa9a121085dab781a1e21f194a6e",
          "blockNumber": "0x19bc7ba",
          "transactionHash": "0x3fe5fa86e5c835bff0f89aa939412c70c01875993ec93cf42180407fabcaab30",
          "transactionIndex": "0x4",
          "logIndex": "0x6",
          "removed": false
        }
      ],
      "logsBloom": "0x00000000000000000000000000000000000000000000000000000000000000000000000000000000000000000000000000000000000000000000000000000000000000000000000000000008000000000000000000002000000000000000000000000000020000000000020000000800000000000000000000000010000000000000000000000000000000000000000000000000000000000000000000000000000000000000000000000000000000800000000000000000000000000000000000000002000000000040000000000000000000000000000000000800000020000000000000000000000000000080000000000000000000000000000000000000",
      "type": "0x2",
      "transactionHash": "0x3fe5fa86e5c835bff0f89aa939412c70c01875993ec93cf42180407fabcaab30",
      "transactionIndex": "0x4",
      "blockHash": "0x10e71e92ece06c386d1ed819275d356fcd66aa9a121085dab781a1e21f194a6e",
      "blockNumber": "0x19bc7ba",
      "gasUsed": "0x10d47",
      "effectiveGasPrice": "0xe8d4a5102",
      "from": "0xe96c20b1ad77ef2f8ebdaebb2e8e287629e5f671",
      "to": "0x88a84517fb7487720742f5dfa74f3c7214ac7da1",
      "contractAddress": null
    },
    {
      "status": "0x1",
      "cumulativeGasUsed": "0x231f9e",
      "logs": [
        {
          "address": "0x88a84517fb7487720742f5dfa74f3c7214ac7da1",
          "topics": [
            "0x8c5be1e5ebec7d5bd14f71427d1e84f3dd0314c0f7b2291e5b200ac8c7c3b925",
            "0x000000000000000000000000e96c20b1ad77ef2f8ebdaebb2e8e287629e5f671",
            "0x000000000000000000000000a6c3a21bff7379570578c40c1ff1f059c29762a2"
          ],
          "data": "0xffffffffffffffffffffffffffffffffffffffffffffffffffffffffffffffff",
          "blockHash": "0x10e71e92ece06c386d1ed819275d356fcd66aa9a121085dab781a1e21f194a6e",
          "blockNumber": "0x19bc7ba",
          "transactionHash": "0xcfd493203b245c3eedc314756097b5a1f7568eb25226887537aafe4e7472a59a",
          "transactionIndex": "0x5",
          "logIndex": "0x7",
          "removed": false
        }
      ],
      "logsBloom": "0x00000000000000000000000000000000000000000000001000000000000000000000000000000000000000000000000000000000000000000000000000200000000000000000000002000000000000000000000000002000000000000000000000000000000000000000020000000000000000000000800000000000000000000000000000000000000000000000000000000000000000000000000000000000020000000000000000000000000000800000000000000000000000000000000000000000000000000040000000000000000000000000000000000800000000000010000000000000000000000080000000000000000000000000000000000000",
      "type": "0x2",
      "transactionHash": "0xcfd493203b245c3eedc314756097b5a1f7568eb25226887537aafe4e7472a59a",
      "transactionIndex": "0x5",
      "blockHash": "0x10e71e92ece06c386d1ed819275d356fcd66aa9a121085dab781a1e21f194a6e",
      "blockNumber": "0x19bc7ba",
      "gasUsed": "0xb888",
      "effectiveGasPrice": "0xe8d4a5102",
      "from": "0xe96c20b1ad77ef2f8ebdaebb2e8e287629e5f671",
      "to": "0x88a84517fb7487720742f5dfa74f3c7214ac7da1",
      "contractAddress": null
    },
    {
      "status": "0x1",
      "cumulativeGasUsed": "0x245d94",
      "logs": [
        {
          "address": "0x88a84517fb7487720742f5dfa74f3c7214ac7da1",
          "topics": [
            "0xddf252ad1be2c89b69c2b068fc378daa952ba7f163c4a11628f55a4df523b3ef",
            "0x000000000000000000000000e96c20b1ad77ef2f8ebdaebb2e8e287629e5f671",
            "0x000000000000000000000000a6c3a21bff7379570578c40c1ff1f059c29762a2"
          ],
          "data": "0x00000000000000000000000000000000000000000000000ad78ebc5ac6200000",
          "blockHash": "0x10e71e92ece06c386d1ed819275d356fcd66aa9a121085dab781a1e21f194a6e",
          "blockNumber": "0x19bc7ba",
          "transactionHash": "0x776d4f60f4442e39c3dd58a090c9e4ffaea85a4a0e5afedf634ef025929e2705",
          "transactionIndex": "0x6",
          "logIndex": "0x8",
          "removed": false
        }
      ],
      "logsBloom": "0x00000000000000000000000000000000000000000000001000000000000000000000000000000000000000000000000000000000000000000000000000000000000000000000000002000008000000000000000000002000000000000000000000000000000000000000020000000000000000000000800000000010000000000000000000000000000000000000000000000000000000000000000000000000000000000000000000000000000000800000000000000000000000000000000000000002000000000040000000000000000000000000000000000800000000000000000000000000000000000080000000000000000000000000000000000000",
      "type": "0x2",
      "transactionHash": "0x776d4f60f4442e39c3dd58a090c9e4ffaea85a4a0e5afedf634ef025929e2705",
      "transactionIndex": "0x6",
      "blockHash": "0x10e71e92ece06c386d1ed819275d356fcd66aa9a121085dab781a1e21f194a6e",
      "blockNumber": "0x19bc7ba",
      "gasUsed": "0x13df6",
      "effectiveGasPrice": "0xe8d4a5102",
      "from": "0xe96c20b1ad77ef2f8ebdaebb2e8e287629e5f671",
      "to": "0xa6c3a21bff7379570578c40c1ff1f059c29762a2",
      "contractAddress": null
    },
    {
      "status": "0x1",
      "cumulativeGasUsed": "0x24c74d",
      "logs": [],
      "logsBloom": "0x00000000000000000000000000000000000000000000000000000000000000000000000000000000000000000000000000000000000000000000000000000000000000000000000000000000000000000000000000000000000000000000000000000000000000000000000000000000000000000000000000000000000000000000000000000000000000000000000000000000000000000000000000000000000000000000000000000000000000000000000000000000000000000000000000000000000000000000000000000000000000000000000000000000000000000000000000000000000000000000000000000000000000000000000000000000",
      "type": "0x2",
      "transactionHash": "0x937ed6b4d9afe0b86c63e3205ea96c38b5cc8aa32da88c87028be4ba8a8d6425",
      "transactionIndex": "0x7",
      "blockHash": "0x10e71e92ece06c386d1ed819275d356fcd66aa9a121085dab781a1e21f194a6e",
      "blockNumber": "0x19bc7ba",
      "gasUsed": "0x69b9",
      "effectiveGasPrice": "0xe8d4a5102",
      "from": "0xe96c20b1ad77ef2f8ebdaebb2e8e287629e5f671",
      "to": "0x47154b0b7f33c97459e8ecca127bd0870c2c3d74",
      "contractAddress": null
    },
    {
      "status": "0x1",
      "cumulativeGasUsed": "0x25198c",
      "logs": [],
      "logsBloom": "0x00000000000000000000000000000000000000000000000000000000000000000000000000000000000000000000000000000000000000000000000000000000000000000000000000000000000000000000000000000000000000000000000000000000000000000000000000000000000000000000000000000000000000000000000000000000000000000000000000000000000000000000000000000000000000000000000000000000000000000000000000000000000000000000000000000000000000000000000000000000000000000000000000000000000000000000000000000000000000000000000000000000000000000000000000000000",
      "type": "0x2",
      "transactionHash": "0x2a061bbb736da9ff0f4bba6883457bc370a6c5fd9fc640c86641992d3ba5d557",
      "transactionIndex": "0x8",
      "blockHash": "0x10e71e92ece06c386d1ed819275d356fcd66aa9a121085dab781a1e21f194a6e",
      "blockNumber": "0x19bc7ba",
      "gasUsed": "0x523f",
      "effectiveGasPrice": "0xe8d4a5102",
      "from": "0xe96c20b1ad77ef2f8ebdaebb2e8e287629e5f671",
      "to": "0xa6c3a21bff7379570578c40c1ff1f059c29762a2",
      "contractAddress": null
    },
    {
      "status": "0x1",
      "cumulativeGasUsed": "0x2656d3",
      "logs": [
        {
          "address": "0x7696c584851320421e89398f786a383ec01d9148",
          "topics": [
            "0x05ce00ce840b224446cd8e251dd05a7324b27ce087eae5ca871478726f83beab",
            "0x398d826052cc107050228a98308c34680aa0dce7d605593f6f73182fe2804534",
            "0x86d1e6ea5497f2ba88cbcace5c880f37673e76faafa24b9849166e52020bfc39"
          ],
          "data": "0x000000000000000000000000000000000000000000000000000000000000002800000000000000000000000000000000000000000000000098a7d9b8314c0000000000000000000000000000000000000000000000000000001c6bf5263400000000000000000000000000000000000000000000000000000000000000000000",
          "blockHash": "0x10e71e92ece06c386d1ed819275d356fcd66aa9a121085dab781a1e21f194a6e",
          "blockNumber": "0x19bc7ba",
          "transactionHash": "0xc16aa43086028e964f19416a86bcff63a1a182690ef41ae9418395a216a39309",
          "transactionIndex": "0x9",
          "logIndex": "0x9",
          "removed": false
        }
      ],
      "logsBloom": "0x00000000000000000000000000000000000000000080000000000000020000000000000000000000000000000000000000000000000000000000000000000000000000000000000400000000000000000000000000000000000000800000200000000000000000000000000000000000000000000008001000000000000000000000000000000000000000000000000000000000020000000000000000000000000000000000000000000000000000000000000000000008000000000000000000000000000000000000000000000000000060000000000000000000000000000000000000000000000000000000000000000000000000000000000000020000",
      "type": "0x2",
      "transactionHash": "0xc16aa43086028e964f19416a86bcff63a1a182690ef41ae9418395a216a39309",
      "transactionIndex": "0x9",
      "blockHash": "0x10e71e92ece06c386d1ed819275d356fcd66aa9a121085dab781a1e21f194a6e",
      "blockNumber": "0x19bc7ba",
      "gasUsed": "0x13d47",
      "effectiveGasPrice": "0xe8d4a5102",
      "from": "0xe96c20b1ad77ef2f8ebdaebb2e8e287629e5f671",
      "to": "0x7696c584851320421e89398f786a383ec01d9148",
      "contractAddress": null
    }
  ],
  "libraries": [],
  "pending": [],
  "returns": {},
  "timestamp": 1770483107022,
  "chain": 114,
  "commit": null
}